:020000040802F0
:1000000000000220D5CE030889EC030895EC030814
:10001000B1EC0308B9EC0308C1EC030800000000D0
:10002000000000000000000000000000C9EC030810
:10003000D5EC030800000000E1EC0308EDEC030838
:10004000C5CE0308FDEC030805ED0308ADC80308A1
:1000500001BE03080DED030815ED030821ED0308AB
:100060002DED030835ED03083DED030845ED0308CC
:100070004DED030855ED03085DED030865ED03083C
:100080006DED030875ED030861B7030841BB030874
:10009000A5BA030865BB03086DBB03087DED030823
:1000A00085ED03088DED030895ED03089DED03082C
:1000B000A5ED0308ADED0308B5ED0308B1C30308D2
:1000C000B9C30308C1C30308C9C3030839CA030875
:1000D00041CA030871CC0308B9CC030801CD030859
:1000E000BDED0308B5C80308C9ED0308D1ED030849
:1000F000D9ED0308E1ED0308E9ED0308F1ED03088C
:10010000F9ED030801EE030809EE030849CA0308E4
:1001100051CA030899CA030811EE030819EE03082F
:1001200021EE030829EE030831EE030839EE030837
:1001300041EE030849EE030851EE030859BD0308D8
:10014000BDBC03087DBD030885BD030859EE030847
:1001500071EE030879EE030881EE030849CD030828
:10016000D1C30308D9C3030841CF030841CF030813
:1001700089EE030891EE030899EE0308A1EE030847
:10018000A9EE0308000000000000000000000000CD
:100190005C1104080000022081F0004102E000BF71
:1001A00083F0004330B54FEA41044FEA430594EA37
:1001B000050F08BF90EA020F1FBF54EA000C55EA72
:1001C000020C7FEA645C7FEA655C00F0E2804FEA43
:1001D0005454D4EB5555B8BF6D420CDD2C4480EA25
:1001E000020281EA030382EA000083EA010180EA55
:1001F000020281EA0303362D88BF30BD11F0004FA3
:100200004FEA01314FF4801C4CEA113102D04042D8
:1002100061EB410113F0004F4FEA03334CEA133313
:1002200002D0524263EB430394EA050F00F0A7802B
:10023000A4F10104D5F1200E0DDB02FA0EFC22FA26
:1002400005F2801841F1000103FA0EF2801843FA1A
:1002500005F359410EE0A5F120050EF1200E012A0B
:1002600003FA0EFC28BF4CF0020C43FA05F3C01849
:1002700051EBE37101F0004507D54FF0000EDCF1C2
:10028000000C7EEB00006EEB0101B1F5801F1BD36B
:10029000B1F5001F0CD349085FEA30004FEA3C0C6F
:1002A00004F101044FEA445212F5800F80F09A8065
:1002B000BCF1004F08BF5FEA500C50F1000041EB69
:1002C000045141EA050130BD5FEA4C0C404141EB6D
:1002D000010111F4801FA4F10104E9D191F0000F94
:1002E00004BF01460020B1FA81F308BF2033A3F117
:1002F0000B03B3F120020CDA0C3208DD02F1140C0E
:10030000C2F10C0201FA0CF021FA02F10CE002F148
:100310001402D8BFC2F1200C01FA02F120FA0CFC41
:10032000DCBF41EA0C019040E41AA2BF01EB04518A
:10033000294330BD6FEA04041F3C1CDA0C340EDC88
:1003400004F11404C4F1200220FA04F001FA02F3CB
:1003500040EA030021FA04F345EA030130BDC4F189
:100360000C04C4F1200220FA02F001FA04F340EA7E
:100370000300294630BD21FA04F0294630BD94F02F
:10038000000F83F4801306BF81F480110134013D16
:100390004EE77FEA645C18BF7FEA655C29D094EA87
:1003A000050F08BF90EA020F05D054EA000C04BF05
:1003B0001946104630BD91EA030F1EBF00210020F0
:1003C00030BD5FEA545C05D14000494128BF41F08F
:1003D000004130BD14F580043CBF01F5801130BDF3
:1003E00001F0004545F0FE4141F470014FF000007E
:1003F00030BD7FEA645C1ABF194610467FEA655C2F
:100400001CBF0B46024650EA013406BF52EA0335D0
:1004100091EA030F41F4002130BD00BF90F0000FBE
:1004200004BF0021704730B54FF4806404F13204FA
:100430004FF000054FF0000150E700BF90F0000FB3
:1004400004BF0021704730B54FF4806404F13204DA
:1004500010F0004548BF40424FF000013EE700BFAA
:1004600042004FEAE2014FEA31014FEA02701FBF3A
:1004700012F07F4393F07F4F81F06051704792F00C
:10048000000F14BF93F07F4F704730B54FF4607486
:1004900001F0004521F0004120E700BF50EA0102D1
:1004A00008BF704730B54FF000050AE050EA01027E
:1004B00008BF704730B511F0004502D5404261EBEE
:1004C00041014FF4806404F132045FEA915C3FF42F
:1004D000DCAE4FF003025FEADC0C18BF03325FEAC8
:1004E000DC0C18BF033202EBDC02C2F1200300FA7D
:1004F00003FC20FA02F001FA03FE40EA0E0021FAA2
:1005000002F11444C1E600BF70B54FF0FF0C4CF48B
:10051000E06C1CEA11541DBF1CEA135594EA0C0F41
:1005200095EA0C0F00F0DEF82C4481EA030621EA7C
:100530004C5123EA4C5350EA013518BF52EA0335B7
:1005400041F4801143F4801338D0A0FB02CE4FF069
:100550000005E1FB02E506F00042E0FB03E54FF099
:100560000006E1FB03569CF0000F18BF4EF0010E91
:10057000A4F1FF04B6F5007F64F5407404D25FEA8D
:100580004E0E6D4146EB060642EAC62141EA555140
:100590004FEAC52040EA5E504FEACE2EB4F1FD0C82
:1005A00088BFBCF5E06F1ED8BEF1004F08BF5FEA00
:1005B000500E50F1000041EB045170BD06F00046B2
:1005C00046EA010140EA020081EA0301B4EB5C045F
:1005D000C2BFD4EB0C0541EA045170BD41F4801157
:1005E0004FF0000E013C00F3AB8014F1360FDEBF7C
:1005F000002001F0004170BDC4F10004203C35DA58
:100600000C341BDC04F11404C4F1200500FA05F3DA
:1006100020FA04F001FA05F240EA020001F000427B
:1006200021F0004110EBD37021FA04F642EB0601F1
:100630005EEA430E08BF20EAD37070BDC4F10C041B
:10064000C4F1200500FA04F320FA05F001FA04F2DF
:1006500040EA020001F0004110EBD37041F10001CB
:100660005EEA430E08BF20EAD37070BDC4F12005D6
:1006700000FA05F24EEA020E20FA04F301FA05F23E
:1006800043EA020321FA04F001F0004121FA04F2E6
:1006900020EA020000EBD3705EEA430E08BF20EAB6
:1006A000D37070BD94F0000F0FD101F000464000F0
:1006B00041EB010111F4801F08BF013CF7D041EA72
:1006C000060195F0000F18BF704703F00046520076
:1006D00043EB030313F4801F08BF013DF7D043EA47
:1006E0000603704794EA0C0F0CEA135518BF95EAFD
:1006F0000C0F0CD050EA410618BF52EA4306D1D184
:1007000081EA030101F000414FF0000070BD50EAA2
:10071000410606BF1046194652EA430619D094EA2C
:100720000C0F02D150EA013613D195EA0C0F05D116
:1007300052EA03361CBF104619460AD181EA03016A
:1007400001F0004141F0FE4141F470014FF0000022
:1007500070BD41F0FE4141F4780170BD70B54FF0BD
:10076000FF0C4CF4E06C1CEA11541DBF1CEA13553D
:1007700094EA0C0F95EA0C0F00F0A7F8A4EB05041F
:1007800081EA030E52EA03354FEA013100F0888016
:100790004FEA03334FF0805545EA131343EA1263DF
:1007A0004FEA022245EA111545EA10654FEA002694
:1007B0000EF000419D4208BF964244F1FD0404F54D
:1007C000407402D25B084FEA3202B61A65EB0305A9
:1007D0005B084FEA32024FF480104FF4002CB6EB66
:1007E000020E75EB030E22BFB61A754640EA0C00E6
:1007F0005B084FEA3202B6EB020E75EB030E22BF26
:10080000B61A754640EA5C005B084FEA3202B6EB66
:10081000020E75EB030E22BFB61A754640EA9C0025
:100820005B084FEA3202B6EB020E75EB030E22BFF5
:10083000B61A754640EADC0055EA060E18D04FEAB3
:10084000051545EA16754FEA06164FEAC30343EA53
:1008500052734FEAC2025FEA1C1CC0D111F4801F20
:100860000BD141EA00014FF000004FF0004CB6E719
:1008700011F4801F04BF01430020B4F1FD0C88BFB8
:10088000BCF5E06F3FF6AFAEB5EB030C04BFB6EBC3
:10089000020C5FEA500C50F1000041EB045170BDB6
:1008A0000EF0004E4EEA113114EB5C04C2BFD4EBE3
:1008B0000C0541EA045170BD41F480114FF0000E67
:1008C000013C90E645EA060E8DE60CEA135594EAE3
:1008D0000C0F08BF95EA0C0F3FF43BAF94EA0C0FE6
:1008E0000AD150EA01347FF434AF95EA0C0F7FF45B
:1008F00025AF104619462CE795EA0C0F06D152EAAF
:1009000003353FF4FDAE1046194622E750EA410692
:1009100018BF52EA43067FF4C5AE50EA41047FF4A3
:100920000DAF52EA43057FF4EBAE12E74FF0FF3C08
:1009300006E000BF4FF0010C02E000BF4FF0010CD9
:100940004DF804CD4FEA410C7FEA6C5C4FEA430C52
:1009500018BF7FEA6C5C1BD001B050EA410C0CBFA1
:1009600052EA430C91EA030F02BF90EA020F002003
:10097000704710F1000F91EA030F58BF994208BF6A
:1009800090422CBFD8176FEAE37040F00100704727
:100990004FEA410C7FEA6C5C02D150EA013C07D17E
:1009A0004FEA430C7FEA6C5CD6D152EA033CD3D0C9
:1009B0005DF8040B704700BF8446104662468C46C3
:1009C0001946634600E000BF01B5FFF7B7FF0028F6
:1009D00048BF10F1000F01BD4DF808EDFFF7F4FF1F
:1009E0000CBF012000205DF808FB00BF4DF808EDAA
:1009F000FFF7EAFF34BF012000205DF808FB00BFCD
:100A00004DF808EDFFF7E0FF94BF012000205DF8EE
:100A100008FB00BF4DF808EDFFF7CEFF94BF0120A3
:100A200000205DF808FB00BF4DF808EDFFF7C4FF9C
:100A300034BF012000205DF808FB00BF4FEA4102EF
:100A400012F5001215D211D56FF47873B3EB625220
:100A500012D94FEAC12343F0004343EA505311F047
:100A6000004F23FA02F018BF404270474FF00000D9
:100A7000704750EA013005D111F0004008BF6FF017
:100A8000004070474FF00000704700BF80F000400A
:100A900002E000BF81F0004142001FBF5FEA410356
:100AA00092EA030F7FEA226C7FEA236C6AD04FEA56
:100AB0001262D2EB1363C1BFD2184140484041409B
:100AC000B8BF5B42192B88BF704710F0004F40F44D
:100AD000000020F07F4018BF404211F0004F41F469
:100AE000000121F07F4118BF494292EA030F3FD035
:100AF000A2F1010241FA03FC10EB0C00C3F1200348
:100B000001FA03F100F0004302D5494260EB4000D6
:100B1000B0F5000F13D3B0F1807F06D340084FEA41
:100B2000310102F10102FE2A51D2B1F1004F40EB36
:100B3000C25008BF20F0010040EA0300704749009E
:100B400040EB000010F4000FA2F10102EDD1B0FA69
:100B500080FCACF1080CB2EB0C0200FA0CF0AABF5E
:100B600000EBC25052421843BCBFD04018437047FC
:100B700092F0000F81F4000106BF80F40000013202
:100B8000013BB5E74FEA41037FEA226C18BF7FEAD9
:100B9000236C21D092EA030F04D092F0000F08BF1B
:100BA0000846704790EA010F1CBF0020704712F002
:100BB0007F4F04D1400028BF40F00040704712F141
:100BC00000723CBF00F50000704700F0004343F0A6
:100BD000FE4040F4000070477FEA226216BF0846DC
:100BE0007FEA23630146420206BF5FEA412390EA9F
:100BF000010F40F4800070474FF0000304E000BF95
:100C000010F0004348BF40425FEA000C08BF704745
:100C100043F0964301464FF000001CE050EA010209
:100C200008BF70474FF000030AE000BF50EA01021E
:100C300008BF704711F0004302D5404261EB41010B
:100C40005FEA010C02BF84460146002043F0B64330
:100C500008BFA3F18053A3F50003BCFA8CF2083A55
:100C6000A3EBC25310DB01FA02FC634400FA02FC5E
:100C7000C2F12002BCF1004F20FA02F243EB020065
:100C800008BF20F00100704702F1200201FA02FCC7
:100C9000C2F1200250EA4C0021FA02F243EB0200BA
:100CA00008BF20EADC7070474FF0FF0C1CEAD052FE
:100CB0001EBF1CEAD15392EA0C0F93EA0C0F6FD0BF
:100CC0001A4480EA010C400218BF5FEA41211ED09D
:100CD0004FF0006343EA501043EA5111A0FB013189
:100CE0000CF00040B1F5000F3EBF490041EAD3715E
:100CF0005B0040EA010062F17F02FD2A1DD8B3F1DA
:100D0000004F40EBC25008BF20F00100704790F048
:100D1000000F0CF0004C08BF49024CEA502040EA9A
:100D200051207F3AC2BFD2F1FF0340EAC250704760
:100D300040F400004FF00003013A5DDC12F1190F9E
:100D4000DCBF00F000407047C2F10002410021FA10
:100D500002F1C2F1200200FA02FC5FEA310040F128
:100D6000000053EA4C0308BF20EADC70704792F0A1
:100D7000000F00F0004C02BF400010F4000F013AD9
:100D8000F9D040EA0C0093F0000F01F0004C02BFD4
:100D9000490011F4000F013BF9D041EA0C018FE743
:100DA0000CEAD15392EA0C0F18BF93EA0C0F0AD049
:100DB00030F0004C18BF31F0004CD8D180EA01006F
:100DC00000F00040704790F0000F17BF90F0004F08
:100DD000084691F0000F91F0004F14D092EA0C0FEA
:100DE00001D142020FD193EA0C0F03D14B0218BF7D
:100DF000084608D180EA010000F0004040F0FE40C3
:100E000040F40000704740F0FE4040F4400070475E
:100E10004FF0FF0C1CEAD0521EBF1CEAD15392EADD
:100E20000C0F93EA0C0F69D0A2EB030280EA010CCD
:100E300049024FEA402037D04FF0805343EA111166
:100E400043EA10130CF000408B4238BF5B0042F1C4
:100E50007D024FF4000C8B4224BF5B1A40EA0C0069
:100E6000B3EB510F24BFA3EB510340EA5C00B3EB9B
:100E7000910F24BFA3EB910340EA9C00B3EBD10F89
:100E800024BFA3EBD10340EADC001B0118BF5FEADB
:100E90001C1CE0D1FD2A3FF650AF8B4240EBC25004
:100EA00008BF20F0010070470CF0004C4CEA5020C5
:100EB0007F32C2BFD2F1FF0340EAC250704740F414
:100EC00000004FF00003013A37E792F0000F00F006
:100ED000004C02BF400010F4000F013AF9D040EA84
:100EE0000C0093F0000F01F0004C02BF490011F418
:100EF000000F013BF9D041EA0C0195E70CEAD15310
:100F000092EA0C0F08D142027FF47DAF93EA0C0FF6
:100F10007FF470AF084676E793EA0C0F04D14B02DA
:100F20003FF44CAF08466EE730F0004C18BF31F08C
:100F3000004CCAD130F000427FF45CAF31F0004386
:100F40007FF43CAF5FE700BF4FF0FF3C06E000BF1F
:100F50004FF0010C02E000BF4FF0010C4DF804CD42
:100F60004FEA40024FEA41037FEA226C18BF7FEA52
:100F7000236C11D001B052EA530C18BF90EA010F54
:100F800058BFB2EB030088BFC81738BF6FEAE170E3
:100F900018BF40F0010070477FEA226C02D15FEA7F
:100FA000402C05D17FEA236CE4D15FEA412CE1D0EB
:100FB0005DF8040B704700BF844608466146FFE7B2
:100FC0000FB5FFF7C9FF002848BF10F1000F0FBD94
:100FD0004DF808EDFFF7F4FF0CBF012000205DF88D
:100FE00008FB00BF4DF808EDFFF7EAFF34BF012012
:100FF00000205DF808FB00BF4DF808EDFFF7E0FFAB
:1010000094BF012000205DF808FB00BF4DF808EDFB
:10101000FFF7D2FF94BF012000205DF808FB00BF5E
:101020004DF808EDFFF7C8FF34BF012000205DF840
:1010300008FB00BF8307C9B270B43FD0541E2AB367
:1010400003788B4223D0431C04E0FCB1057814469E
:101050008D421CD013F0030F184604F1FF3203F148
:101060000103F2D1032C14D8651E4CB303788B42D4
:101070000DD0421C002302E004788C4207D0AB4222
:10108000104603F1010302F10102F5D1002070BC0A
:10109000704741EA0126034646EA064618460433ED
:1010A00002687240A2F1013525EA020212F0803F87
:1010B000DAD1043C1846032CF0D8D5E71446D1E722
:1010C0002046E4E7032A70B412D940EA01039B07E3
:1010D0000FD10C46034621461846043404330D68EC
:1010E0000668AE4204D1043A1846032A2146F2D8D3
:1010F000C2B105780C78A54204BF02F1FF3200238B
:1011000006D00CE010F8015F11F8014FA54206D19E
:10111000934203F10103F5D1002070BC7047281BF6
:1011200070BC70471046F8E70F2AF0B445D940EA82
:1011300001039B0745D1A2F110070C4603463F0966
:1011400000EB0716103625681033103443F8105C96
:1011500054F80C5C43F80C5C54F8085C43F8085CE9
:1011600054F8045C43F8045CB342ECD17B1C02F0FD
:101170000F0CBCF1030F4FEA03131944034422D9A7
:101180000E461D46644656F8047B043C032C45F885
:10119000047BF8D8ACF1040402F0030224F0030449
:1011A00004342344214432B10A4411F8014B9142E2
:1011B00003F8014BF9D1F0BC70470346002AF3D184
:1011C000F9E70346F0E76246002AEDD1F3E700BFF6
:1011D0008307F0B448D0541E002A43D0CDB2034652
:1011E00002E0002C3ED0144603F8015B13F0030F1D
:1011F00004F1FF32F5D1032C2DD9CDB20F2C45EAE5
:10120000052545EA054518D9A4F1100703F1100694
:101210001A463F0906EB07161560103242F80C5CBF
:1012200042F8085C42F8045CB242F5D104F00F04C5
:101230000137032C03EB07130DD91E462246043A4F
:1012400046F8045B032AFAD8221F04F0030422F0B4
:101250000302043213442CB1C9B21C4403F8011B2D
:10126000A342FBD1F0BC704714460346C3E700BF5E
:10127000C1F30A5C2DE9F843ACF2FF33132B0646A9
:101280000F4613DC002B40DB4FF6FF7CC0F20F0C47
:101290004CFA03F303EA010C5CEA000C1CD107F0E2
:1012A0000041C2E900676046BDE8F883332B1EDCCD
:1012B0004FF0FF33ACF2134C23FA0CFC1CEA000392
:1012C0001CD020EA0C060F460B46C2E900673246E6
:1012D000FEF766FFBDE8F88321EA030700263B46D8
:1012E000C2E900673246FEF75BFFBDE8F88307F00E
:1012F0000041C2E900670020BDE8F88307F0004123
:10130000C2E900671846BDE8F88307F000494FF0CE
:101310000008C2E90089BDE8F88300BF830770B503
:1013200006461FD10368A3F1013222EA030313F03A
:10133000803F08BF031D15D1184653F8044BA4F194
:10134000013525EA040414F0803FF5D003782BB171
:10135000431C184601330478002CFAD100F09EF9A2
:10136000304670BD3046F1E7C9B2F0B4002947D02D
:1013700084070FD00278002A3FD091423ED0431C10
:1013800005E013F8012B002A37D0914236D09A0796
:101390001846F6D141EA0127036847EA0747A3F157
:1013A000013483EA070224EA0303A2F1013424EAA8
:1013B0000202134313F0803F11D1021D104652F870
:1013C000043B83EA0704A3F10136A4F1013526EAC0
:1013D000030325EA0404234313F0803FEED003788F
:1013E000002B3BD0994209D0431C01E0914205D02B
:1013F000184613F8012B002AF8D11046F0BC7047AC
:1014000081070DD00378002BF8D0431C02E002784E
:10141000002AF3D013F0030F184603F10103F6D1AD
:101420000368A3F1013222EA030313F0803F0AD1DB
:10143000031D184653F8042BA2F1013121EA0202E0
:1014400012F0803FF5D00378002BD7D0431C18460C
:1014500001330278002AFAD1F0BC70471846CDE774
:1014600040EA010C1CF0070F27D1BDF1100DCDE9AA
:101470000245CDE900676FF000064FF0000700BF9E
:10148000F0E80223F1E80245A242A2F1013C2CEA75
:10149000020C0CF0803C08BFBCF1000F40F0E5806E
:1014A000AB42A3F1013C2CEA030C0CF0803C08BFDA
:1014B000BCF1000F40F0D680E2E710F0030C21D021
:1014C00020F0030050F8042B5FEACC7C08D00FD248
:1014D00011F801CB5FFA92F3B3EB0C0C10D17BB196
:1014E00011F801CB5FFAA2F3B3EB0C0C08D13BB1BE
:1014F00011F801CB5FFAB2F3B3EB0C0C00D10BB9CE
:1015000060467047BDF1100DCDE90245CDE9006799
:101510006FF000064FF0000711F0030C33D110F00C
:10152000040F0FD050F8042B51F8044BA242A2F143
:10153000013C2CEA020C0CF0803C08BFBCF1000F0F
:1015400040F0938011F0040F99D051F8045B00BF74
:10155000F0E80223AA42A2F1013C2CEA020C0CF0B2
:10156000803C08BFBCF1000F79D1F1E80245A342ED
:10157000A3F1013C2CEA030C0CF0803C08BFBCF149
:10158000000F69D1E4E721F00301BCF1020F20D084
:101590003FDA51F8045B00BF50F8043B4FEA1525D1
:1015A000A3F1013C2CEA030C0CF0803CB7EB0C2FB0
:1015B00003EA162208BFAA4251D151F8045BBCF1DC
:1015C000000F82EA03034FEA056208BF934240D14D
:1015D000E2E751F8045B00BF50F8043B4FEA1545C1
:1015E000A3F1013C2CEA030C0CF0803CB7EB0C4F50
:1015F00003EA164208BFAA4231D151F8045BBCF19C
:10160000000F82EA03034FEA054208BF934220D14C
:10161000E2E751F8045B00BF50F8043B4FEA156560
:10162000A3F1013C2CEA030C0CF0803CB7EB0C6FEF
:1016300003EA166208BFAA4211D151F8045BBCF15B
:10164000000F82EA03034FEA052208BF934200D14C
:10165000E2E719BA12BA0AE019BA22BA07E011BAD7
:101660002ABA04E019BA2ABA01E011BA22BA9CFADD
:101670008CF0DDE90067DDE902451DF1100D38B1A0
:10168000B0FA80F0C0F1180021FA00F122FA00F25D
:101690000120914298BF8041704700BF80EA01025B
:1016A000844612F0030F4FD111F0030F32D14DF8E1
:1016B000044D11F0040F51F8043B0BD0A3F101329B
:1016C0009A4312F0803F04BF4CF8043B51F8043BAE
:1016D00016D100BF51F8044BA3F101329A4312F026
:1016E000803FA4F101320BD14CF8043BA24312F02D
:1016F000803F04BF51F8043B4CF8044BEAD023462A
:101700000CF8013B13F0FF0F4FEA3323F8D15DF8DB
:10171000044B704711F0010F06D011F8012B0CF8A3
:10172000012B002A08BF704711F0020FBFD031F81B
:10173000022B12F0FF0F16BF2CF8022B8CF80020A2
:1017400012F47F4FB3D1704711F8012B0CF8012B25
:10175000002AF9D1704700BF20F0030110F0030008
:10176000C0F1000051F8043B00F1040C4FEACC0C2E
:101770006FF000021CBF22FA0CF213434FF0010C71
:101780004CEA0C2C4CEA0C4CA3EB0C0222EA0302B0
:1017900012EACC1204BF51F8043B0430F4D013F029
:1017A000FF0F1FBF013013F47F4F013013F47F0F81
:1017B00018BF0130704700BFF0B4002A4BD040EA98
:1017C000010313F003032DD1032A2BD904680D68FC
:1017D000AC4227D1043A3ED0A4F1013525EA0404F5
:1017E00014F0803F3DD10C4605460EE06B6805467F
:1017F00066680C46A3F10137B34227EA030711D10B
:10180000043A28D017F0803F28D1032A00F10400C1
:1018100001F10401EAD8561E2AB928792279801AE2
:10182000F0BC7047561E03780A7893421BD1E6B18C
:10183000BBB101368B1C0446314405E08B4203F1F9
:1018400001030BD00028EBD014F8010F13F8012C82
:101850009042F3D0E3E71046F0BC70470020F0BCA4
:1018600070471846DCE71846D9E73046D8E700BF8E
:1018700040EA01039B0770B42BD1032A84BF0B46B7
:10188000054626D9194653F8044BA4F1013626EA39
:10189000040616F0803F05D1043A45F8044B032AAC
:1018A0001946EFD89AB10C78013A6B1C2C703CB1F8
:1018B0006AB111F8014F013A03F8014B002CF7D13E
:1018C0002AB11A44002103F8011B9342FBD170BCDA
:1018D00070470546E6E700BFF0B404780CB30E7815
:1018E0000746C6B1A64210D04B1C01E094420BD073
:1018F0001D4613F8012B002AF8D144780130002C42
:10190000EED12E78074600E02646002E14BF38465A
:101910000020F0BC704744780D460130002CDFD128
:10192000EFE72046F0BC704738B502460C4600256C
:1019300011B909E0421C054610462146FFF714FD87
:101940000028F7D1284638BDBDE83840FFF70CBD68
:101950004FF0010C2DE9F003644600254FF0FF36EF
:10196000631987198B420DD23F5D10F80380B8458B
:101970002FD21D460124C6EB030C63198B4200EBEA
:101980000607F1D34FF0010900254C464FF0FF3711
:10199000C2F800C0631900EB070C99420ED91CF87D
:1019A00004C010F80380E0451AD91D460124C7EB96
:1019B00003096319994200EB070CF0D8013701368F
:1019C000B74226BFC2F8009038463046BDE8F00363
:1019D00070470CD04FF0010C2E4664466544BFE7BB
:1019E0000CD04FF001092F464C464D44D2E76445D8
:1019F00004F10104B4D11D460124B1E74C4504F1C2
:101A00000104C7D11D460124C4E700BF2DE9F04FF2
:101A1000ADF2244D164680460D461046194607AADB
:101A20001C46FFF795FF07AB0DF21C42039043F8ED
:101A3000044F9342FBD1671E002308A834B1F25C27
:101A4000F91A0133A34240F82210F8D10799304621
:101A5000039A3144FFF736FB002840F08180DDF81F
:101A60000CC02A468246671E0CF1FF3CCDF808C028
:101A7000B444CDF810C0DDF80CC005460196CCF199
:101A8000010CCDF814C008E025B1079A934238BF85
:101A9000C2EB04039A44002532460AEB040608EB25
:101AA00002000021B21AFFF7C5FA002853D1002E18
:101AB00051D008EB060308A913F8013C51F8233074
:101AC000002BE1D1039A954228BF2A46BA4212D28E
:101AD000019908EB0A03985C11F802C0114484458F
:101AE00006D032E011F8010F13F802C084452CD162
:101AF0000132BA42F6D3039B02989D4228BF184692
:101B00001CD2DDF810C008EB0A039CF80010DDF8C9
:101B100008C013F80C20914240F08680DDF804B034
:101B2000049AAB4406E012F8019D13F801C0E145A8
:101B300004D108465A4500F1FF31F4D10135854200
:101B400074D8079DAA44651BA6E7DDF814C00025DC
:101B5000E2449244A0E700200DF2244DBDE8F08F4E
:101B6000DDF80CC02A46DDF80CA04FF0000BCCEBE2
:101B700004030DF12009634538BF6346671E013336
:101B8000254607930CF1FF33B444CDF808C0DDF8C7
:101B90000CC00193CCF1010CCDF810C00BEB050487
:101BA00008EB02000021A21AFFF744FA0028D2D164
:101BB000002CD0D008EB040313F8013C59F8233073
:101BC00053BBBA4508EB0B0013D2029B1A7810F8EE
:101BD0000A309A4218BF534621D1029A534605E073
:101BE00012F8011F10F803C08C4518D10133BB4215
:101BF000F6D3019B5A1CAFD0DDF804C016F80C10C8
:101C000010F80C20914206D113F1FF33A4D3F15CFC
:101C1000C25C9142F8D0079B9B442246BEE7DDF8A8
:101C200010C0E3449B44F8E7039887E708EB0A00F9
:101C300092E700BF2DE9F04F8046037887B00E464B
:101C4000002B00F001810A789AB184460131012409
:101C500002E011F8012B5AB1934214BF002404F0A2
:101C600001041CF8013F0D46002BF2D12B7813BB69
:101C70001CB1404607B0BDE8F08F08F10100317893
:101C8000FFF772FBAD1B012D18BF0028074608BFE8
:101C90000046EFD0A844474594BFC7EB0804012491
:101CA0001F2D0CD93846214632462B46FFF7AEFE93
:101CB00007B0BDE8F08F002007B0BDE8F08F2946DF
:101CC00005AA3046FFF744FE0599314400900246CC
:101CD0003046FFF7F7F9002857D1009B834680462E
:101CE0002246013B019333440293009BC3F101035D
:101CF000039308EB0504B8180021A21AFFF79AF91C
:101D00000028D8D1002CD6D0009B9B4528BF5B462D
:101D10009D4214D9F918F05CF21811F808108842A5
:101D200040F08C8007EB080C06E012F8011F1CF84D
:101D30000300884240F0828001339D42F5D8009B29
:101D400001995B4540F28380029B07EB08091A78F2
:101D500019F801309A427AD1029B06EB0B0A06E091
:101D600013F801CD19F80200844504D111465345FA
:101D700001F1FF32F4D10BF1010B8B4569D8059BC2
:101D80009844C3EB050B2246B3E700984FF0000BD5
:101D900022462B1A8146834238BF0346B1440133A1
:101DA0000593009B38440190C3F101030293009B0B
:101DB00003F1FF389A460BEB0504B8180021A21A6C
:101DC000FFF738F900287FF476AF002C3FF473AFAB
:101DD000554598BF07EB0B0014D9019899F80020DE
:101DE00010F80B309A4224D14A46534607EB0B00B9
:101DF00005E012F8011F10F803C08C451AD1013319
:101E00009D42F6D8B8F1FF3F43463FF433AF16F892
:101E1000081010F80820914207D113F1FF33FFF4A6
:101E200029AFF15CC25C9142F7D0059B9B442246EE
:101E3000C1E75346029A93449B44F8E703994FF055
:101E4000000B884498449EE70D4601240EE7009954
:101E500091E707EB08000DE72DE9F04F40F20C4445
:101E600085B0C2F200048A469B4603900846D4F827
:101E7000008000E02046044614F8015B08EB0503EF
:101E80005B7803F0080303F0FF06002BF2D12D2D41
:101E90006ED02B2D334604BF841C45783BF01001D7
:101EA00016D1DBF1010138BF0021302D09D079B105
:101EB00049F699194FF00A0BC1F69919DC4605212C
:101EC00016E0207800F0DF00582855D000295CD1BA
:101ED00059464FF0FF300192029300F06DF85946D9
:101EE00081464FF0FF3000F095F9019A029BDC46E5
:101EF000002738460CE08D42D4BF00260126484515
:101F000018BF0026EEB90CFB0050012714F8015B46
:101F100008EB0506767816F0040F18BF303D07D1A0
:101F200016F0030610D0012E14BF57263726AD1B1E
:101F3000AB4509DD484594BF0026012656EAD77710
:101F4000D9D04FF0FF37E1E7791C07D073B912B150
:101F500057B95446146005B0BDE8F08F03992223A9
:101F600038460B60002AF6D0013CF3E74042EEE72A
:101F7000841C4578012391E74FF0100B6578DC460F
:101F800002340F216FF07049B2E74FF0080B0721C0
:101F9000DC466FF06049ABE730B440F21044C2F267
:101FA00000040D46134601462A46206830BCFFF760
:101FB00053BF00BF000000004A1E08BF7047C0F0BA
:101FC0002481884240F21681114200F01781B0FA54
:101FD00080F3B1FA81F2A2EB0303C3F11F0304A261
:101FE00002EB03134FF000029F4600BFAFF30080E7
:101FF000B0EBC17F00BF42EB020228BFA0EBC17073
:10200000B0EB817F00BF42EB020228BFA0EB8170E2
:10201000B0EB417F00BF42EB020228BFA0EB417052
:10202000B0EB017F00BF42EB020228BFA0EB0170C2
:10203000B0EBC16F00BF42EB020228BFA0EBC16052
:10204000B0EB816F00BF42EB020228BFA0EB8160C2
:10205000B0EB416F00BF42EB020228BFA0EB416032
:10206000B0EB016F00BF42EB020228BFA0EB0160A2
:10207000B0EBC15F00BF42EB020228BFA0EBC15032
:10208000B0EB815F00BF42EB020228BFA0EB8150A2
:10209000B0EB415F00BF42EB020228BFA0EB415012
:1020A000B0EB015F00BF42EB020228BFA0EB015082
:1020B000B0EBC14F00BF42EB020228BFA0EBC14012
:1020C000B0EB814F00BF42EB020228BFA0EB814082
:1020D000B0EB414F00BF42EB020228BFA0EB4140F2
:1020E000B0EB014F00BF42EB020228BFA0EB014062
:1020F000B0EBC13F00BF42EB020228BFA0EBC130F2
:10210000B0EB813F00BF42EB020228BFA0EB813061
:10211000B0EB413F00BF42EB020228BFA0EB4130D1
:10212000B0EB013F00BF42EB020228BFA0EB013041
:10213000B0EBC12F00BF42EB020228BFA0EBC120D1
:10214000B0EB812F00BF42EB020228BFA0EB812041
:10215000B0EB412F00BF42EB020228BFA0EB4120B1
:10216000B0EB012F00BF42EB020228BFA0EB012021
:10217000B0EBC11F00BF42EB020228BFA0EBC110B1
:10218000B0EB811F00BF42EB020228BFA0EB811021
:10219000B0EB411F00BF42EB020228BFA0EB411091
:1021A000B0EB011F00BF42EB020228BFA0EB011001
:1021B000B0EBC10F00BF42EB020228BFA0EBC10091
:1021C000B0EB810F00BF42EB020228BFA0EB810001
:1021D000B0EB410F00BF42EB020228BFA0EB410071
:1021E000B0EB010F00BF42EB020228BFA0EB0100E1
:1021F000104670470CBF012000207047B1FA81F2F1
:10220000C2F11F0220FA02F0704708B14FF0FF3010
:1022100000F00EB80029F8D02DE90340FFF7CCFEFE
:10222000BDE8064002FB00F3A1EB0301704700BFCD
:10223000704700BF0EB480B58BB000AF78607B688C
:10224000B3F1FF3F57D07B68002B4CD07868FFF785
:1022500083FA0346062B09D907F10C03184679685F
:102260000722FFF705FB0023FB7405E007F10C03D1
:1022700018467968FFF712FA00F02CFC03464EF678
:10228000B060C0F60300194600F0FAFF07F118022B
:1022900007F10C0310464EF6B861C0F603011A466A
:1022A00001F002F80EE007F118031846FFF754FAA0
:1022B000034607F118021A444EF6C063C0F6030342
:1022C0001B88138007F118031846FFF745FA0346E9
:1022D000092BE8D907F118034EF6C460C0F60300D5
:1022E000194600F0CDFF07F138037B620020796BBF
:1022F0007A6A00F08FFE2C37BD46BDE8804003B0FF
:10230000704700BF80B485B000AF786039600023AB
:10231000FB6009E03B68013B3B607A683B68134423
:102320001B78FA681344FB603B68002BF2D1FB6812
:102330005B42FB60FB6818461437BD465DF8047BC2
:10234000704700BF80B487B000AFF8600B467A607A
:10235000FB720023FB75FB7D5A1CFA759B007A68A3
:102360001344FA681A6024E0FB681B7897F90B2085
:102370005BB29A421AD1FB6800221A70FB680133E3
:102380001B78002B12D0FB6801331B7897F90B20C8
:102390005BB29A420AD0FB7D5A1CFA759B007A68A0
:1023A0001344FA680132FA60FA681A60FB68013374
:1023B000FB60FB681B78002BD6D1FB7D18461C37D1
:1023C000BD465DF8047B704780B582B000AF786091
:1023D00039607B68002B00D127E03B68002B00D1DF
:1023E00023E03B689B68002B00D11EE03B681B7B11
:1023F000012B00D919E03B681A687B689A603B683A
:102400005A687B68DA603B689A687B681A613B6847
:102410001A7B7B681A757B681B7D012B02D17B6858
:102420000122DA60786800F003F80837BD4680BD05
:1024300080B582B000AF78607B68002B00D115E0DA
:102440007B681A697B68DB687968896801FB03F33C
:10245000104600211A46FEF7BBFE7B6800221A6078
:102460007B6800225A607B6801225A750837BD4696
:1024700080BD00BF80B485B000AF786039603B6834
:10248000BB607B68002B02D03B68002B01D100238E
:102490003DE07B685B7D042B01D1042337E0002302
:1024A000FB6012E07B681A697B681B681344BA689A
:1024B00012781A70BB680133BB607B681B685A1CBA
:1024C0007B681A60FB680133FB607B68DA68FB6835
:1024D0009A42E7D87B681A687B689B687968C96804
:1024E00001FB03F39A4202D37B6800221A607B68E7
:1024F0001A687B685B689A4204D17B6804225A752B
:10250000022304E07B6803225A757B685B7D1846D2
:102510001437BD465DF8047B704700BF80B582B0BC
:1025200000AF786039607B68002B02D03B68002BDD
:1025300001D1002330E07B685B7D012B01D10123B9
:102540002AE03B68002B03D07868396800F028F84F
:102550007B685A687B68DB681A447B685A607B68D2
:102560005A687B689B687968C96801FB03F39A42E3
:1025700002D37B6800225A607B681A687B685B68BC
:102580009A4204D17B6801225A75022304E07B68D9
:1025900003225A757B685B7D18460837BD4680BDAF
:1025A00080B485B000AF786039603B68FB607B68C1
:1025B000002B02D03B68002B01D1002321E07B6877
:1025C0005B7D012B01D101231BE07B685B68BB6055
:1025D0000DE07B681A69BB6813441B78DAB2FB68AC
:1025E0001A70FB680133FB60BB680133BB607B681A
:1025F0005A687B68DB681A44BB689A42E9D87B68F2
:102600005B7D18461437BD465DF8047B704700BFFC
:1026100080B400AF72B6BD465DF8047B704700BF62
:1026200080B584B000AF78607B681A680023C2F67A
:10263000FD731340B3F1005F13D17B6804331B6853
:10264000FB60FB68BB60FFF7E3FF18F091FC7B6861
:102650001B68184618F03EFCBB6800209847002312
:1026600000E0012318461037BD4680BD2DE9F04734
:10267000ADF5167D06AF07F10C0318603B1D1A601F
:1026800007F10B030A461A70002387F83F3244F221
:10269000C450C2F2000019F035FF07F114031846C8
:1026A0004EF6C861C0F6030105F0ACFB034687F89F
:1026B0003E3297F83E32002B14D097F83E32052B6D
:1026C00040F0F4804EF6D060C0F603004EF6C861CC
:1026D000C0F6030100F0D4FD4EF6C860C0F603005A
:1026E00005F072FD07F11403184605F015FC44F2DD
:1026F000C453C2F200035B881C4644F2C453C2F2C6
:1027000000031B791A4644F2C453C2F200035B79FA
:102710000092019344F2C440C2F200004EF6E86118
:10272000C0F603014EF6C862C0F60302234600F06D
:10273000BBFD44F29820C2F2000044F2C441C2F250
:102740000001022204F0DCFA0346002B1BD044F205
:102750009820C2F2000044F2C441C2F200010622F5
:1027600004F0CEFA0346002B10D14EF60070C0F6EE
:10277000030044F29821C2F2000106F05FFD01233C
:1027800087F83F3202E0012387F83F3297F83F3263
:10279000002B00F0858044F29823C2F20003D3F8A6
:1027A0000C3244F29820C2F20000194605F0C4F839
:1027B00044F2C453C2F200035B881D4644F2C45382
:1027C000C2F200031B791C4644F2C453C2F2000358
:1027D0005B799A4644F2C453C2F200039B7999464E
:1027E00044F2C453C2F20003DB79984644F2C45366
:1027F000C2F200031B7A1E4600F06CF90346CDF8C6
:1028000000A0CDF80490CDF808800396049344F21C
:10281000C440C2F200004EF62871C0F603012A46F9
:10282000234600F041FD44F2C440C2F2000044F2ED
:102830009821C2F2000106F001FD07F10C031868AF
:1028400044F29821C2F2000106F0F8FC07F10B03F4
:102850001B7844F2C440C2F200004EF64C71C0F640
:1028600003011A4600F020FD44F2C440C2F2000009
:1028700044F29821C2F2000106F0E0FC3B1D18680A
:1028800044F29821C2F2000106F0D8FC4EF65470D2
:10289000C0F6030044F29821C2F2000106F0CEFC1B
:1028A00044F29820C2F2000005F01EF807F51077F8
:1028B000BD46BDE8F08700BF80B400AF62B6BD463C
:1028C0005DF8047B704700BF80B400AF72B6BD46B0
:1028D0005DF8047B704700BF80B584B000AF7860BE
:1028E000FFF7F2FF40F20853C2F200031B68002B0F
:1028F00002D1FFF7E1FF39E040F20853C2F20003D2
:102900001A687B689A420DD140F20853C2F2000364
:102910001B681A6940F20853C2F200031A60FFF7FD
:10292000CBFF23E040F20853C2F200031B68BB60F8
:1029300040F20853C2F200031B68FB6004E0BB686E
:10294000FB60BB681B69BB60BB681B69002B03D0C5
:10295000BA687B689A42F2D1BA687B689A4203D11E
:10296000BB681A69FB681A61FFF7A6FF1037BD46FE
:1029700080BD00BF80B584B000AF7860FFF7A4FFD2
:102980007B6800221A6140F20853C2F200031B6800
:10299000002B08D140F20853C2F200037A681A6093
:1029A000FFF78AFF47E07B689A6840F20853C2F25B
:1029B00000031B689B689A420FD240F20853C2F290
:1029C00000031A687B681A6140F20853C2F20003E0
:1029D0007A681A60FFF770FF2DE040F20853C2F2E8
:1029E00000031B68FB6040F20853C2F200031B683F
:1029F000BB6004E0BB68FB60BB681B69BB60BB6875
:102A00001B69002B05D0BB689A687B689B689A425B
:102A1000F0D9BB689A687B689B689A4206D97B6844
:102A2000BA681A61FB687A681A6102E0BB687A6862
:102A30001A61FFF741FF1037BD4680BD80B500AF7A
:102A400040F20453C2F200031B685A1C40F20453C4
:102A5000C2F200031A600EE040F20853C2F2000313
:102A60001B6801221A7340F20853C2F200031B686C
:102A70001846FFF731FF40F20853C2F200031B680B
:102A8000002B0CD040F20853C2F200031B689A6876
:102A900040F20453C2F200031B689A42DCD980BDA5
:102AA00080B485B000AF786040F20453C2F20003F6
:102AB0001A687B681344FB6000BF40F20453C2F203
:102AC00000031A68FB689A42F7D31437BD465DF8D5
:102AD000047B704780B400AF40F20453C2F200039D
:102AE0001B681846BD465DF8047B704780B582B010
:102AF00000AF786039607868FFF7EEFE40F204536B
:102B0000C2F200031A687B681A6040F20453C2F2F2
:102B100000031A687B685A6040F20453C2F2000353
:102B20001A683B681A447B689A607868FFF722FF4E
:102B30007B6803221A730837BD4680BD80B584B018
:102B400000AF78607868FFF7C7FE7B689A687B689B
:102B50001B68D31AFB6040F20453C2F200031A68E8
:102B60007B681A6040F20453C2F200031A687B6863
:102B70005A6040F20453C2F200031A68FB681A4418
:102B80007B689A607868FFF7F5FE7B6803221A730A
:102B90001037BD4680BD00BF80B582B000AF786001
:102BA0007B681B7B002B00D105E07868FFF794FE63
:102BB0007B6800221A730837BD4680BD80B483B09D
:102BC00000AF78607B681B7B012B01D1012300E003
:102BD000002318460C37BD465DF8047B704700BFE4
:102BE00080B483B000AF78607B681B7B032B01D17E
:102BF000012300E0002318460C37BD465DF8047B36
:102C0000704700BF80B582B000AF786039603B6824
:102C10009A687B681A603B68DA687B685A603B6830
:102C20001A8A7B681A813B689A7C7B689A727B68F7
:102C300003F10B023B681333104619460722FEF7D7
:102C400017FE3B68DB7E072B02D93B680722DA764A
:102C50003B68DA7E7B689A743B68DA697B685A6104
:102C60003B681A6A7B681A63786800F00DF83B6865
:102C70001B68002B05D03B681B683A6852681046F9
:102C800098470837BD4680BD80B582B000AF7860F8
:102C90007B6800221A837B6800229A767B681C334B
:102CA0001846FFF779FF0837BD4680BD80B582B072
:102CB00000AF786039607B68002B0AD07B681B68A6
:102CC0003A68D2B21A707B681B685A1C7B681A601B
:102CD00004E03B68DBB2184618F0A6FB0837BD4697
:102CE00080BD00BF2DE9F04184B000AFF860B9604D
:102CF0007A603B60002420267B68002B19DD0025CC
:102D0000D7F8088002E0013508F1010898F8003092
:102D1000002BF8D17B689D4202DB00237B6002E040
:102D20007B685B1B7B603B6803F00203002B00D0D9
:102D300030263B6803F00103002B0BD107E0F86855
:102D40003146FFF7B3FF01347B68013B7B607B6852
:102D5000002BF4DC0AE0BB681B785BB2F86819460C
:102D6000FFF7A4FF0134BB680133BB60BB681B786D
:102D7000002BF0D107E0F8683146FFF797FF0134E8
:102D80007B68013B7B607B68002BF4DC23461846A4
:102D90001037BD46BDE8F0812DE9F0438DB000AF9E
:102DA000F860B9607A603B604FF000094FF00008AE
:102DB000BD68002387F82F30BB68002B33D13B68F8
:102DC000002B0CD097F82F301A46013287F82F20AD
:102DD0005BB207F1300213442D2203F8202C97F840
:102DE0002F301A46013287F82F205BB207F13002EC
:102DF0001344302203F8202C97F82F301A46013262
:102E000087F82F205BB207F130021344002203F849
:102E1000202C07F11003F86819463A6D7B6DFFF717
:102E200061FF03464AE03B68002B0AD07B680A2B0F
:102E300007D1BB68002B04DC4FF00109BB685B4283
:102E40001D4607F110041D340023237014E07B6835
:102E5000B5FBF3F203FB02F3EB1A1E46092E02DD6B
:102E6000BB6D3A3B1E44013CF3B23033DBB2DBB204
:102E700023707B68B5FBF3F5002DE8D1B9F1000FA5
:102E800014D03B6D002B0ED07B6D03F00203002BA2
:102E900009D0F8682D21FFF709FF08F101083B6D03
:102EA000013B3B6502E0013C2D232370F86821467D
:102EB0003A6D7B6DFFF716FF0346434418463437DF
:102EC000BD46BDE8F08300BF90B58FB004AFF86099
:102ED000C7E900230023BB6107F11003D7E9000114
:102EE0001A46FEF7C5F9C7E908013B6A3B627B6AEF
:102EF00023F000437B620023FB6110E0D7E9080167
:102F00004FF000024FF00003C4F22403FDF7FCFA77
:102F100002460B46C7E90823FB690133FB61FA69E6
:102F2000FB6B9A42EADBD7E9042310461946FDF70A
:102F300085FD0446D7E900014FF000024FF0000381
:102F4000FDF754FD0346002B1AD0D7E90801FDF721
:102F500075FD03461846FDF771FAD7E90423FDF71E
:102F600021F902460B46104619464FF000024FF079
:102F70000003FDF731FD0346002B01D1012300E0E2
:102F80000023BA6B00923A6C019261220292F868B7
:102F900021460A22FFF700FF0346BA691344BB61CA
:102FA000F8682E21FFF782FEBB690133BB61D7E9C8
:102FB0000801FDF743FD0346002B10D1FB6B009386
:102FC0000223019361230293F86800210A2200235F
:102FD000FFF7E2FE0346BA691344BB6114E0D7E988
:102FE0000801FDF72BFD0346FA6B009202220192C5
:102FF00061220292F86819460A220023FFF7CCFEEC
:103000000346BA691344BB61BB6918462C37BD46F9
:1030100090BD00BF2DE9F0418AB004AFF860B960FF
:103020007A60002419E1BB681B785BB2252B40F065
:103030000981BB680133BB60002635464FF00008AC
:10304000BB681B78002B00D10CE1BB681B785BB21E
:10305000252B00D1F6E0BB681B785BB22D2B04D189
:10306000BB680133BB60012605E004E0BB680133A7
:10307000BB6046F00206BB681B785BB2302BF5D014
:103080000CE02B469B002B445B001D46BB681B7865
:103090005BB2303B1D44BB680133BB60BB681B782F
:1030A0005BB22F2B04DDBB681B785BB2392BE8DDEC
:1030B000BB681B785BB22E2B1BD1BB680133BB6096
:1030C0000CE043469B0043445B009846BB681B787A
:1030D0005BB2303B9844BB680133BB60BB681B7874
:1030E0005BB22F2B07DDBB681B785BB2392BE8DDA9
:1030F00001E04FF00608BB681B785BB2732B16D15A
:103100007B681A1D7A601B689846B8F1000F01D0E1
:10311000434603E04EF68C73C0F60303F868194685
:103120002A463346FFF7DEFD03461C4492E0BB68A7
:103130001B785BB2642B13D17B681A1D7A601B6805
:103140007B617B69DB0FDBB2009501966122029205
:10315000F86879690A22FFF71FFE03461C4479E0EC
:10316000BB681B785BB2782B10D17B681A1D7A6024
:103170001B680095019661220292F8681946102298
:103180000023FFF709FE03461C4463E0BB681B787D
:103190005BB2582B10D17B681A1D7A601B680095B2
:1031A000019641220292F868194610220023FFF787
:1031B000F3FD03461C444DE0BB681B785BB2752BE6
:1031C00010D17B681A1D7A601B68009501966122F8
:1031D0000292F86819460A220023FFF7DDFD034634
:1031E0001C4437E0BB681B785BB2632B12D17B6851
:1031F0001A1D7A601B68DBB23B7400237B7407F1F5
:103200001003F86819462A463346FFF76BFD03465C
:103210001C441FE0BB681B785BB2662B1AD17B682D
:10322000073323F0070303F108027A60D3E9002390
:103230000095CDF804800296F868FFF745FE034636
:103240001C4407E0BB681B785BB2F8681946FFF7BF
:103250002DFD0134BB680133BB60BB681B78002BBC
:103260007FF4E1AEFB68002B03D0FB681B680022F3
:103270001A70234618461837BD46BDE8F08100BFD6
:103280000FB480B582B000AF07F114037B6000205B
:1032900039697A68FFF7BEFE034618460837BD460F
:1032A000BDE8804004B070470EB480B585B000AF73
:1032B000786007F12003FB603B1D1846F969FA6846
:1032C000FFF7A8FE034618461437BD46BDE8804008
:1032D00003B07047B0B586B000AF14237B614EF6E3
:1032E000A470C0F603004EF6B071C0F60301FEF7FD
:1032F000A1FF03200021142210F00AFD3B46032009
:10330000194610F02DFD0346012B21D14EF6A47075
:10331000C0F603004EF6D871C0F60301FEF78AFF2F
:10332000032040F20001C2F2000110F00FFE40F253
:103330000003C2F200033C461D460FCD0FC42B68AC
:10334000236040F20003C2F2000301221A7019E068
:103350004EF6A470C0F603004FF20001C0F6030160
:10336000FEF768FF40F20003C2F200031C463D4630
:103370000FCD0FC42B68236040F20003C2F200039C
:1033800000221A7010F04AFC03461B78012B55D11D
:103390004EF6A470C0F603004FF21401C0F603010C
:1033A000FEF748FF10F03AFC03461A6B40F20003A8
:1033B000C2F200035A6010F031FC03461A6B40F26F
:1033C0000003C2F200039A6010F028FC03469A6BD7
:1033D00040F20003C2F20003DA6010F01FFC034663
:1033E000DA6B40F20003C2F200031A613B46184652
:1033F00040F20001C2F200011422FDF763FE034611
:10340000002B11D04EF6A470C0F603004FF2240139
:10341000C0F60301FEF70EFF032040F20001C2F2E6
:10342000000110F093FD09E04EF6A470C0F6030011
:103430004FF23401C0F60301FEF7FCFE40F2000338
:10344000C2F200035B684EF6A470C0F603004FF2B0
:103450004401C0F603011A46FEF7ECFE40F20003F9
:10346000C2F200039B684EF6A470C0F603004FF250
:103470005C01C0F603011A46FEF7DCFE40F20003D1
:10348000C2F20003DB684EF6A470C0F603004FF2F0
:103490007401C0F603011A46FEF7CCFE40F20003A9
:1034A000C2F200031B694EF6A470C0F603004FF28F
:1034B0008C01C0F603011A46FEF7BCFE1837BD4664
:1034C000B0BD00BF80B400AFBD465DF8047B70475F
:1034D00080B400AF40F20003C2F200031846BD46BC
:1034E0005DF8047B704700BF80B582B000AF7860A4
:1034F0007B68D3F8AC237B6803F55F7310461946ED
:1035000011F072FB0837BD4680BD00BF80B582B0A8
:1035100000AF78600B46FB707B68D3F8AC13FA7889
:1035200078681346DB009B1A9B00034403F5F07395
:103530001B68FA78084611461A4611F09FFB0837B7
:10354000BD4680BD80B582B000AF78600B46FB7091
:103550007B68D3F8AC13FA7878681346DB009B1AC3
:103560009B0003443C331B68FA78084611461A4610
:1035700011F0E0FB0837BD4680BD00BF80B582B0CA
:1035800000AF78607B68D3F8AC33184611F0BEFC0E
:103590000837BD4680BD00BF80B584B000AF7860FD
:1035A0000123FB737B68DB68002B02D0022B03D066
:1035B00005E00023FB7305E00123FB7302E0012318
:1035C000FB7300BF7B68D3F8AC23FB7B1046194626
:1035D00011F064FC7B68D3F8AC33184611F02EFC74
:1035E0001037BD4680BD00BF80B582B000AF7860A7
:1035F0007B68D3F8AC33184611F060FC0837BD4641
:1036000080BD00BF80B582B000AF78607B68D3F822
:10361000AC33184611F068FC0837BD4680BD00BFCA
:1036200080B582B000AF78600B46FB707B68D3F842
:10363000AC23FB781046194611F090FC0837BD46C4
:1036400080BD00BF80B582B000AF78600B46FB70D4
:103650007B68D3F8AC23FB781046194611F070FC58
:103660000837BD4680BD00BF80B582B000AF78602E
:103670007B68D3F8AC33184611F07EFC0837BD46A2
:1036800080BD00BF80B582B000AF78607B68D3F8A2
:10369000AC33184611F07CFC0837BD4680BD00BF36
:1036A00080B582B000AF7860F970BA703B807B68FB
:1036B000D3F82002F9783A88BB7815F07FF8002318
:1036C00018460837BD4680BD80B582B000AF78602F
:1036D0000B46FB707B68D3F82022FB781046194616
:1036E00015F084F9002318460837BD4680BD00BF99
:1036F00080B582B000AF78600B46FB707B68D3F872
:103700002022FB781046194615F0CCF90023184604
:103710000837BD4680BD00BF80B485B000AF78607B
:103720000B46FB707B68D3F82032FB60FB785BB202
:10373000002B0BDAFB7803F07F02F9681346DB00FD
:103740009B1A9B000B4430339B780BE0FB7803F013
:103750007F02F9681346DB009B1A9B000B4403F5BC
:10376000E8739B7918461437BD465DF8047B7047B3
:1037700080B582B000AF78600B46FB707B68D3F8F1
:103780002022FB781046194614F0F6FF0023184655
:103790000837BD4680BD00BF80B584B000AFF8607B
:1037A0007A600A46FA723B81FB68D3F820123B89A3
:1037B000FA7A084611467A6815F0BEF800231846D2
:1037C0001037BD4680BD00BF80B584B000AFF86043
:1037D0007A600A46FA723B81FB68D3F820123B8973
:1037E000FA7A084611467A6815F04AF80023184616
:1037F0001037BD4680BD00BF80B485B000AF034622
:103800003960FB80FB887F2B02D8FB88FB812BE093
:103810003B68002B0FD0FB88FF2B09D8FB88A3F156
:10382000800240F26853C0F6040333F8123000E01F
:103830000023FB8118E00023FB810DE0FA8940F2B0
:103840006853C0F6040333F81230FA889A4200D164
:1038500005E0FB890133FB81FB897F2BEED9FB89D6
:1038600080339BB2DBB2FB81FB8918461437BD461F
:103870005DF8047B704700BF80B485B000AF03469D
:10388000FB800023FB6002E0FB680133FB6040F239
:103890006863C0F60403FA6833F81230002B09D0CD
:1038A00040F26863C0F60403FA6833F81230FA880D
:1038B0009A42E9D140F26863C0F60403FA6833F82B
:1038C0001230002B07D040F64803C0F60403FA6814
:1038D00033F8123000E0FB8818461437BD465DF817
:1038E000047B704780B400AF01231846BD465DF8E5
:1038F000047B704780B400AF00231846BD465DF8D6
:10390000047B704780B582B000AF40F21053C2F222
:10391000000332221A6019F087F819F085F803467F
:10392000FB71FB79FF2B06D040F21053C2F200036B
:103930001B68002BF1D1FB7918460837BD4680BDC6
:1039400080B500AF1C20002117F0B6FC19F06CF810
:1039500080BD00BF80B500AF1C20002117F0ACFC7B
:10396000642018F0ABFF19F05FF880BD80B400AFA1
:1039700040F22803C2F200031B78DBB243F00103DC
:10398000DAB240F22803C2F200031A70BD465DF8B5
:10399000047B704790B585B000AF7860396040F225
:1039A0000C53C2F200030A221A6019F03DF80346D4
:1039B000FB73FB7BFF2B06D140F20C53C2F20003DA
:1039C0001B68002BF1D1FB7BFE2B01D0002326E0EE
:1039D0007C68631C7B6019F027F8034623707C68C1
:1039E000631C7B6019F020F8034623707C68631C1D
:1039F0007B6019F019F8034623707C68631C7B60B8
:103A000019F012F8034623703B68043B3B603B68A7
:103A1000002BDDD119F008F819F006F8012318463B
:103A20001437BD4690BD00BF80B584B000AF78604C
:103A30000B46FB70FFF766FF0346FF2B01D0002308
:103A40002EE0FB78184618F0BFFFFB78FD2B26D040
:103A50000023FB737B685A1C7A601B78184618F0A9
:103A6000B3FF7B685A1C7A601B78184618F0ACFFCD
:103A7000FB7B013BFB73FB7B002BEBD1FF2018F0A2
:103A8000A3FFFF2018F0A0FF18F0CEFF0346BB7382
:103A9000BB7B03F01F03052B01D0002300E00123B3
:103AA00018461037BD4680BD80B584B000AF0346D0
:103AB0003960FB71FB795BB2002B0EDAFB7903F006
:103AC0007F03FB7177200021FFF7EEFF0346BB73F6
:103AD000BB7B012B01D9BB7B4FE01C20002117F0E1
:103AE000EBFB1C20012117F0E7FBFFF70BFF034660
:103AF000FF2B01D0FF2340E0FB79184618F064FF4C
:103B00003B681B0EDBB2184618F05EFF3B681B0CCF
:103B1000DBB2184618F058FF3B681B0ADBB21846A8
:103B200018F052FF3B68DBB2184618F04DFF012336
:103B3000FB73FB79402B01D19523FB73FB79482B59
:103B400001D18723FB73FB7B184618F03DFFFB79FF
:103B50004C2B01D118F068FF0A23FB7318F064FFA7
:103B60000346BB73BB7B5BB2002B05DAFB7B013BDF
:103B7000FB73FB7B002BF1D1BB7B18461037BD4696
:103B800080BD00BF90B583B000AF40F22803C2F201
:103B900000031B78DBB203F00203002B06D040F2D7
:103BA0002803C2F200031B78DBB2CFE0FFF7D2FE9E
:103BB0000A23FB7104E018F037FFFB79013BFB712E
:103BC000FB79002BF7D100237B7140200021FFF708
:103BD0006BFF0346012B40F0938040F20C53C2F27E
:103BE000000364221A6048204FF4D571FFF75CFF90
:103BF0000346012B53D10023FB710CE0FC7918F034
:103C000013FF03461A4607F10803234403F8082C60
:103C1000FB790133FB71FB79032BEFD9BB78012BC7
:103C20006ED1FB78AA2B6BD100BF40F20C53C2F2CD
:103C300000031B68002B07D0E9204FF08041FFF7FD
:103C400033FF0346002BF0D140F20C53C2F20003C5
:103C50001B68002B54D07A200021FFF725FF034674
:103C6000002B4DD10023FB710CE0FC7918F0DCFE39
:103C700003461A4607F10803234403F8082CFB798E
:103C80000133FB71FB79032BEFD93B7803F0400341
:103C9000002B01D00C2300E004237B7130E0E920ED
:103CA0000021FFF701FF0346012B04D802237B719B
:103CB000E923BB7103E001237B714123BB7100BF8A
:103CC00040F20C53C2F200031B68002B07D0BB79F3
:103CD00018460021FFF7E8FE0346002BF0D140F222
:103CE0000C53C2F200031B68002B07D050204FF486
:103CF0000071FFF7D9FE0346002B01D000237B7132
:103D000040F21453C2F200037A791A70FFF718FEDA
:103D10007B79002B12D040F22803C2F200031B78FB
:103D2000DBB223F00103DAB240F22803C2F200034F
:103D30001A704FF47A6018F0C1FD01E0FFF716FE2B
:103D400040F22803C2F200031B78DBB218460C379E
:103D5000BD4690BD80B400AF40F22803C2F200031C
:103D60001B78DBB21846BD465DF8047B704700BF88
:103D700080B584B000AFF860B9601346FB71FB7981
:103D8000002B01D1042352E040F22803C2F20003C9
:103D90001B78DBB203F00103002B01D0032346E0C4
:103DA00040F21453C2F200031B7803F00803002B07
:103DB00002D1BB685B02BB60FB79012B11D15120A2
:103DC000B968FFF771FE0346002B28D1F8684FF45D
:103DD0000071FFF7DFFD0346002B20D00023FB71AD
:103DE0001DE05220B968FFF75FFE0346002B16D195
:103DF000F8684FF40071FFF7CDFD0346002B00D1AA
:103E000009E0FB6803F50073FB60FB79013BFB7184
:103E1000FB79002BECD14C200021FFF745FEFFF78A
:103E20008FFDFB79002B0CBF00230123DBB218466A
:103E30001037BD4680BD00BF80B584B000AFF860CC
:103E4000B9601346FB71FB79002B01D104236FE0AD
:103E500040F22803C2F200031B78DBB203F0010337
:103E6000002B01D0032363E040F22803C2F20003D9
:103E70001B78DBB203F00403002B01D0022357E0D0
:103E800040F21453C2F200031B7803F00803002B26
:103E900002D1BB685B02BB60FB79012B10D15820BB
:103EA000B968FFF701FE0346002B39D1F868FE21FF
:103EB000FFF7BAFD0346002B32D00023FB712FE041
:103EC00040F21453C2F200031B7803F00603002BE8
:103ED00004D0FB79D7201946FFF7E6FD5920B968D1
:103EE000FFF7E2FD0346002B1AD1F868FC21FFF72B
:103EF0009BFD0346002B00D109E0FB6803F500732E
:103F0000FB60FB79013BFB71FB79002BEDD10020BD
:103F1000FD21FFF789FD0346002B01D10123FB7131
:103F2000FFF70EFDFB79002B0CBF00230123DBB252
:103F300018461037BD4680BD90B58BB000AF034624
:103F40003960FB713B683B62012387F82730FB79BE
:103F5000052B20D13B6A1B78012B09D0022B0DD0F9
:103F6000002B13D1FFF702FD002387F8273011E063
:103F7000FFF7F0FC002387F827300BE03B6A0133A2
:103F800001221A70002387F8273003E0042387F802
:103F9000273082E181E140F22803C2F200031B785E
:103FA000DBB203F00103002B01D0032377E1FB799F
:103FB0000E2B00F26D8101A252F823F0F93F0208A6
:103FC00015400208C1400208D1400208914202088F
:103FD000914202089142020891420208914202086D
:103FE00091420208C5410208DB4102080142020871
:103FF00027420208674202081C20012117F05CF9E1
:10400000FFF780FC0346FF2B03D1002387F82730FE
:1040100041E140E149200021FFF746FD0346002B26
:104020004DD107F10C0318461021FFF7B3FC0346EE
:10403000002B44D03B7B9B09DBB2012B0DD17B7D58
:104040001A463B7D1B029BB213449BB20133FB8398
:10405000FB8B9A023B681A602DE07B7C03F00F0318
:10406000DAB2BB7DDB09DBB21344DAB27B7D03F04D
:104070000303DBB25B00DBB21344DBB2023387F82D
:1040800026303B7D9B09DBB21A46FB7C9B009BB232
:1040900013449AB2BB7C03F003039BB29B029BB216
:1040A00013449BB20133FB83FA8B97F82630093B0C
:1040B0009A403B681A60002387F82730EBE0EAE07B
:1040C0003B684FF400721A80002387F82730E2E043
:1040D00040F21453C2F200031B7803F00403002BD8
:1040E0002BD0CD200021FFF7DFFC0346002B68D149
:1040F00018F09AFC07F10C0318461021FFF74AFC50
:104100000346002B5DD0302387F8263006E018F0F8
:104110008BFC97F82630013B87F8263097F826303D
:10412000002BF4D1BB7D1B09DBB210229A403B6807
:104130001A60002387F82730ADE049200021FFF7FF
:10414000B3FC0346002B3CD107F10C0318461021A9
:10415000FFF720FC0346002B33D040F21453C2F289
:1041600000031B7803F00203002B12D0BB7D03F089
:104170003F035A00FB7DDB09DBB213445A1C7B7EF4
:104180009B09DBB2013B02FA03F31A463B681A6053
:1041900013E0BB7D03F07C039B109BB20133FA7DDF
:1041A00002F00302D100FA7D5209D2B20A44013270
:1041B00002FB03F31A463B681A60002387F8273096
:1041C00069E068E040F21453C2F200031A783B6AD7
:1041D0001A70002387F827305DE049200021FFF79F
:1041E00063FC0346002B0AD1386A1021FFF7D2FB8B
:1041F0000346002B03D0002387F827304BE04AE02A
:104200004A200021FFF750FC0346002B0AD1386AF0
:104210001021FFF7BFFB0346002B03D0002387F8D4
:10422000273038E037E07A200021FFF73DFC0346D5
:10423000002B17D1042387F826300BE03C6A631C5F
:104240003B6218F0F1FB0346237097F82630013BE0
:1042500087F8263097F82630002BEFD1002387F817
:10426000273018E017E0CD200021FFF71DFC0346A2
:10427000002B0CD118F0D8FB386A4021FFF78AFBDD
:104280000346002B03D0002387F8273003E002E029
:10429000042387F82730FFF753FB97F82730184699
:1042A0002C37BD4690BD00BF90B583B000AF40F243
:1042B0000C53C2F200031B68BB71BB79002B08D002
:1042C000BB79013BBB71BA7940F20C53C2F20003D7
:1042D0001A6040F21053C2F200031B68BB71BB7935
:1042E000002B08D0BB79013BBB71BA7940F2105367
:1042F000C2F200031A6040F21853C2F200031B68B6
:104300003B60FFF7EFFA0446FFF7F4FA034644EA8E
:10431000030240F21853C2F200031A6040F218532D
:10432000C2F200031B683A689A422FD140F2280378
:10433000C2F200031B78FB7140F21853C2F2000373
:104340001B6803F00203002B04D0FB7943F0040345
:10435000FB7103E0FB7923F00403FB7140F2185377
:10436000C2F200031B6803F00103002B04D0FB79A9
:1043700023F00203FB7103E0FB7943F00303FB71BD
:1043800040F22803C2F20003FA791A700C37BD46D6
:1043900090BD00BF80B584B000AF0346FB71FA79D1
:1043A00040F23C73C2F2000353F822301B68984776
:1043B0000346FB73FB7B18461037BD4680BD00BF2C
:1043C00080B584B000AF0346FB71FA7940F23C73CC
:1043D000C2F2000353F822305B6898470346FB7330
:1043E000FB7B18461037BD4680BD00BF80B586B048
:1043F00000AFB9607A600246FA73BB73FA7B40F291
:104400003C73C2F2000353F822309B68BA7BB86851
:10441000796898470346FB75FB7D18461837BD46FB
:1044200080BD00BF80B586B000AFB9607A6002463B
:10443000FA73BB73FA7B40F23C73C2F2000353F889
:104440002230DB68BA7BB868796898470346FB7509
:10445000FB7D18461837BD4680BD00BF80B584B0CF
:1044600000AF0B463A600246FA71BB71FA7940F22E
:104470003C73C2F2000353F822301B69BA7910462C
:10448000396898470346FB73FB7B18461037BD46D7
:1044900080BD00BF80B400AF00231846BD465DF864
:1044A000047B704780B487B000AFF860B9607A6071
:1044B000FB687B61BB683B6107E07B695A1C7A61E2
:1044C0003A69511C396112781A707B685A1E7A60F9
:1044D000002BF2D11C37BD465DF8047B704700BF4E
:1044E00080B487B000AFF860B9607A60FB687B6128
:1044F00005E07B695A1C7A61BA68D2B21A707B688F
:104500005A1E7A60002BF4D11C37BD465DF8047B3F
:10451000704700BF80B489B000AFF860B9607A60BE
:10452000FB68FB61BB68BB6100237B6100BF7B68EC
:104530005A1E7A60002B0DD0FB695A1CFA611B7859
:104540001A46BB69591CB9611B78D31A7B617B6918
:10455000002BECD07B6918462437BD465DF8047B00
:10456000704700BF80B483B000AF7860396002E06C
:104570007B6801337B607B681B78002B05D07B68F0
:104580001B785AB23B689A42F2D17B681B785BB2C7
:1045900018460C37BD465DF8047B704780B485B083
:1045A00000AF786039600023BB60BB68FB6044E00B
:1045B00040F22452C2F20002F9680B465B000B4441
:1045C0009B0013441B68002B32D040F22452C2F2ED
:1045D0000002F9680B465B000B449B0013441A6809
:1045E0007B68D3F800329A4224D140F22452C2F2BE
:1045F0000002F9680B465B000B449B001344043334
:104600001A687B68D3F808329A4213D140F22452D8
:10461000C2F20002F9680B465B000B449B00134496
:1046200008331A887B68B3F806329A4202D107E051
:104630000123BB60FB680133FB60FB68012BB7D92A
:10464000FB68022B09D1BB68002B02D13B68022B0F
:1046500001D1002316E0122314E03B68002B0ED199
:1046600040F22452C2F20002F9680B465B000B4490
:104670009B00134408335B88B3F5807F01D110237E
:1046800000E0002318461437BD465DF8047B7047F0
:1046900080B483B000AF00237B6002E07B6801330D
:1046A0007B607B68012B0CD840F22452C2F20002DE
:1046B00079680B465B000B449B0013441B68002B7E
:1046C000ECD17B68022B0CBF00230123DBB2184620
:1046D0000C37BD465DF8047B704700BF80B485B0E1
:1046E00000AF786039600023FB6035E040F224526F
:1046F000C2F20002F9680B465B000B449B001344B6
:104700001A687B68D3F800329A4222D140F22452D0
:10471000C2F20002F9680B465B000B449B00134495
:1047200004331A687B68D3F808329A4211D140F2F8
:104730002452C2F20002F9680B465B000B449B0056
:10474000134408331A887B68B3F806329A4200D1C2
:1047500005E0FB680133FB60FB68012BC6D9FB68F1
:10476000022B54D10023FB6002E0FB680133FB60A5
:10477000FB68012B0CD840F22452C2F20002F96807
:104780000B465B000B449B0013441B68002BECD1D1
:10479000FB68022B01D100236FE07B68D3F8000295
:1047A00040F22452C2F20002F9680B465B000B444F
:1047B0009B00134418607B68D3F8080240F224522F
:1047C000C2F20002F9680B465B000B449B001344E5
:1047D000043318607B68B3F8060240F22452C2F238
:1047E0000002F9680B465B000B449B00134408333E
:1047F00002461A8040F22452C2F20002F9680B46C7
:104800005B000B449B001344083300225A803B6832
:10481000002B0FD040F22452C2F20002F9680B467E
:104820005B000B449B00134408335B88002B01D0D2
:10483000002322E03B68002B0ED140F22452C2F24A
:104840000002F9680B465B000B449B0013440833DD
:104850005B88013399B201E04FF4807140F2245239
:10486000C2F20002F86803465B0003449B00134455
:1048700008330A465A80FB68013318461437BD4690
:104880005DF8047B704700BF80B485B000AF7860EE
:104890007B68013B7B607B68012B37D840F2245258
:1048A000C2F2000279680B465B000B449B00134484
:1048B00008335B88FB81FB89B3F5807F01D100233E
:1048C000FB81FB89002B02D0FB89013BFB8140F27D
:1048D0002452C2F2000279680B465B000B449B0035
:1048E00013440833FA895A80FB89002B0BD140F21C
:1048F0002452C2F2000279680B465B000B449B0015
:10490000134400221A6000237B7301E002237B73AF
:104910007B7B18461437BD465DF8047B704700BFAB
:1049200080B485B000AF78600023FB601CE040F2EB
:104930002452C2F20002F9680B465B000B449B0054
:1049400013441A687B689A420BD140F22452C2F297
:104950000002F9680B465B000B449B0013440022E5
:104960001A60FB680133FB60FB68012BDFD9143749
:10497000BD465DF8047B704780B584B000AF7860B9
:104980007B6893F80432002B3BD07B68D3F82C3241
:10499000FB607B6893F801227B6810461946FA6831
:1049A0000123FFF73FFD0346002B01D0012329E03F
:1049B0007B68002283F804227B68D3F82032FA68EF
:1049C000D21A7B68D3F818329A421AD27B6893F8CD
:1049D0000332BB6012E07B68D3F81832FA681344E4
:1049E000FB607B6893F801227B6810461946FA68E1
:1049F0000123FFF717FDBB68013BBB60BB68012BC0
:104A0000E9D8002318461037BD4680BD80B582B076
:104A100000AF786039607B68D3F82C223B689A42FB
:104A20001AD07868FFF7A8FF0346002B01D00123B6
:104A300013E07B6893F801227B68104619463A68B8
:104A40000123FFF7D3FC0346002B01D0012304E030
:104A50007B683A68C3F82C22002318460837BD4605
:104A600080BD00BF80B584B000AF78607868FFF784
:104A700083FF0346FB73FB7B002B40F09E807B682B
:104A800093F80032032B40F08B807B6893F805325B
:104A9000012B40F085807B68184600214FF400729E
:104AA000FFF71EFD7B68552283F8FE217B68AA2252
:104AB00083F8FF217B6852221A707B6852225A7059
:104AC0007B6861229A707B684122DA707B6872226F
:104AD00083F8E4217B68722283F8E5217B68412218
:104AE00083F8E6217B68612283F8E7217B68D3F8AD
:104AF0001032DAB27B6883F8E8217B68D3F8103291
:104B00009BB21B0A9BB2DAB27B6883F8E9217B680F
:104B1000D3F810321B0CDAB27B6883F8EA217B6889
:104B2000D3F810321B0EDAB27B6883F8EB217B6876
:104B3000D3F80C32DAB27B6883F8EC217B68D3F8C7
:104B40000C329BB21B0A9BB2DAB27B6883F8ED2170
:104B50007B68D3F80C321B0CDAB27B6883F8EE2149
:104B60007B68D3F80C321B0EDAB27B6883F8EF2136
:104B70007B68D3F81C325A1C7B68C3F82C227B68F4
:104B800093F801127A687B68D3F82C3208461146F4
:104B90001A460123FFF746FC7B68002283F80522B2
:104BA0007B6893F80132184600210022FFF756FC7B
:104BB0000346002B01D00123FB73FB7B1846103703
:104BC000BD4680BD80B483B000AF786039603B687B
:104BD000023B3B607B68D3F814329A1E3B689A42D2
:104BE00001D8002309E07B6893F802323A6802FB9F
:104BF00003F27B68D3F82832134418460C37BD46BD
:104C00005DF8047B704700BF80B586B000AF786068
:104C100039603B68012B05D97B68D3F814223B68C7
:104C20009A4201D8012395E07B6893F80032022B69
:104C300045D0032B63D0012B40F08A803B687B6119
:104C40007B695B087A6913447B617B68D3F8202217
:104C50007B695B0A134478681946FFF7D7FE034661
:104C6000002B00D074E07B69C3F308037A68D35C3F
:104C70003B617B6901337B617B68D3F820227B69D0
:104C80005B0A134478681946FFF7C0FE0346002B01
:104C900000D05DE07B69C3F308037A68D35C1B0234
:104CA0003A6913433B613B6803F00103002B02D0D8
:104CB0003B691B0902E03B69C3F30B034AE07B68D5
:104CC000D3F820223B681B0A134478681946FFF783
:104CD0009DFE0346002B00D03AE03B685B0003F4E6
:104CE000FF737A681344FB60FB6801331B781B0277
:104CF0009AB2FB681B7813439BB29BB22AE07B6895
:104D0000D3F820223B68DB09134478681946FFF783
:104D10007DFE0346002B00D01AE03B689B0003F4A5
:104D2000FE737A681344FB60FB6803331B781A0632
:104D3000FB6802331B781B041A43FB6801331B78A2
:104D40001B021A43FB681B78134323F0704301E0F6
:104D50004FF0FF3318461837BD4680BD80B588B088
:104D600000AFF860B9607A60BB68012B05D9FB68B9
:104D7000D3F81422BB689A4202D80223FB77E6E0FC
:104D8000FB6893F80032022B71D0032B00F0938064
:104D9000012B40F0D680BB68BB61BB695B08BA6978
:104DA0001344BB61FB68D3F82022BB695B0A134440
:104DB000F8681946FFF72AFE0346FB77FB7F002BB6
:104DC00000D0C0E0BB69C3F30803FA6813447B61F9
:104DD000BB6803F00103002B0DD07B691B78DBB2AD
:104DE00003F00F03DAB27B68DBB21B01DBB21343C3
:104DF000DBB2DBB201E07B68DBB27A691370BB69BE
:104E00000133BB61FB68012283F80422FB68D3F8FD
:104E10002022BB695B0A1344F8681946FFF7F6FDC8
:104E20000346FB77FB7F002B00D08CE0BB69C3F30C
:104E30000803FA6813447B61BB6803F00103002B8D
:104E400003D07B681B09DBB20EE07B691B78DBB209
:104E500023F00F03DAB27B681B0ADBB203F00F0307
:104E6000DBB21343DBB2DBB27A6913706BE0FB6831
:104E7000D3F82022BB681B0A1344F8681946FFF7D1
:104E8000C5FD0346FB77FB7F002B00D05BE0BB68D2
:104E90005B0003F4FF73FA6813447B617B68DAB24A
:104EA0007B691A707B6901337A6892B2120A92B2F6
:104EB000D2B21A7047E0FB68D3F82022BB68DB0946
:104EC0001344F8681946FFF7A1FD0346FB77FB7F03
:104ED000002B00D037E0BB689B0003F4FE73FA6838
:104EE00013447B617B6903331B781A067B690233A9
:104EF0001B781B041A437B6901331B781B021A437E
:104F00007B691B78134303F070437A6813437B601B
:104F10007B68DAB27B691A707B6901337A6892B276
:104F2000120A92B2D2B21A707B6902337A68120CFA
:104F3000D2B21A707B6903337A68120ED2B21A7039
:104F400001E00223FB77FB68012283F80422FB7F48
:104F500018462037BD4680BD80B584B000AF78606C
:104F600039603B68012B05D97B68D3F814223B6874
:104F70009A4202D80223FB7341E00023FB7338E01E
:104F800078683968FFF740FEB860BB68002B00D135
:104F900035E0BB68012B02D10223FB732FE0BB6815
:104FA000B3F1FF3F02D10123FB7328E07868396831
:104FB0000022FFF7D3FE0346FB73FB7B002B00D0E0
:104FC0001DE07B68D3F81032B3F1FF3F0FD07B6850
:104FD000D3F810325A1C7B68C3F810227B6893F810
:104FE000053243F00103DAB27B6883F80522BB681F
:104FF0003B607B68D3F814223B689A42C0D8FB7BA5
:1050000018461037BD4680BD80B586B000AF7860C9
:1050100039603B68002B0FD17B68D3F80C323B61C1
:105020003B69002B05D07B68D3F814223B699A4278
:1050300016D801233B6113E078683968FFF7E4FD77
:10504000B860BB68012B01D8012372E07B68D3F8FC
:105050001422BB689A4201D9BB686AE03B683B6195
:105060003B697B617B6901337B617B68D3F81422E8
:105070007B699A4207D802237B617A693B699A422D
:1050800001D9002355E078687969FFF7BDFDB86064
:10509000BB68002B0CD100BF786879696FF0704253
:1050A000FFF75CFE0346FB73FB7B002B1AD10FE07E
:1050B000BB68B3F1FF3F02D0BB68012B01D1BB68D5
:1050C00037E07A693B699A4201D1002331E0C9E7B0
:1050D0003B68002B06D0786839687A69FFF73EFE96
:1050E0000346FB73FB7B002B1AD17B687A69C3F8FC
:1050F0000C227B68D3F81032B3F1FF3F18D07B68E5
:10510000D3F810325A1E7B68C3F810227B6893F8DC
:10511000053243F00103DAB27B6883F8052207E029
:10512000FB7B012B02D14FF0FF3300E001237B61B9
:105130007B6918461837BD4680BD00BF80B487B074
:1051400000AF786039607B68D3F8243204333B6168
:105150003B685A0A7B68D3F8003293F80232B2FBFC
:10516000F3F37B613B691A1D3A611B68FB60FB68C6
:10517000002B01D1002311E07A69FB689A4205D225
:1051800000BF3B691A687B69134407E07A69FB68D2
:10519000D31A7B613B6904333B61E3E718461C3754
:1051A000BD465DF8047B704780B584B000AF786081
:1051B0000B467B807B687A88A3F806227B68D3F84D
:1051C0000832FB60FB68012B07D07B68D3F8003204
:1051D000D3F81422FB689A4201D8022377E0FB68D7
:1051E000002B0CD17B68D3F8003293F80032032BEC
:1051F00005D17B68D3F80032D3F82432FB60FB681A
:10520000002B1AD17B68FA68C3F80C227B68D3F8AC
:105210000032B3F808327A889A4201D3022356E06A
:105220007B68D3F80032D3F824227B881B099BB219
:105230001A447B68C3F810223DE07B68D3F8003243
:1052400093F802321B017B811EE07B68D3F80032A9
:105250001846F968FFF7D8FCF860FB68B3F1FF3F28
:1052600001D1012333E0FB68012B07D97B68D3F818
:105270000032D3F81422FB689A4201D8022326E0B8
:105280007A887B89D31A7B807A887B899A42DCD2A0
:105290007B68FA68C3F80C227B68D3F800321846A2
:1052A000F968FFF78FFC02467B881B099BB21A4402
:1052B0007B68C3F810227B68D3F800227B8803F058
:1052C0000F035B011A447B68C3F8142200231846BD
:1052D0001037BD4680BD00BF90B585B000AF786087
:1052E00039607B68B3F8063201333B813B89002B80
:1052F00004D07B68D3F81032002B01D10423DCE00A
:105300003B8903F00F039BB2002B40F0C6807B6803
:10531000D3F810325A1C7B68C3F810227B68D3F88C
:105320000C32002B0AD17B68D3F80032B3F8083274
:105330003A899A42C0F0B1800423BEE03B891B0940
:105340009BB21A467B68D3F8003293F80232013BD5
:105350001340002B40F0A1807B68D3F800227B68CB
:10536000D3F80C3210461946FFF74EFCF860FB6884
:10537000012B01D80223A0E0FB68B3F1FF3F01D16C
:1053800001239AE07B68D3F80032D3F81422FB683B
:105390009A4273D83B68002B01D104238DE07B68CF
:1053A000D3F800227B68D3F80C3210461946FFF779
:1053B0002BFEF860FB68002B01D107237DE0FB6822
:1053C000012B01D1022378E0FB68B3F1FF3F01D14B
:1053D000012372E07B68D3F800321846FFF7CCFA5D
:1053E0000346002B01D0012367E07B68D3F800322D
:1053F000184600214FF40072FFF772F87B68D3F86B
:1054000000427B68D3F800321846F968FFF7DAFBF0
:105410000346C4F82C320023FB721BE07B68D3F8F0
:105420000032012283F804227B68D3F80032184648
:10543000FFF7A2FA0346002B01D001233DE07B6871
:10544000D3F80032D3F82C220132C3F82C22FB7A95
:105450000133FB727B68D3F8003293F80232FA7A98
:105460009A42DBD37B68D3F800327A68D2F8002204
:10547000D2F82C12FA7A8A1AC3F82C227B68FA68BE
:10548000C3F80C227B68D3F800321846F968FFF79E
:1054900099FB02467B68C3F810227B683A89A3F81F
:1054A00006227B68D3F800223B8903F00F035B01DF
:1054B0001A447B68C3F81422002318461437BD46EB
:1054C00090BD00BF80B584B000AF78603960786867
:1054D0000021FFF769FE0346FB73FB7B002B31D1F4
:1054E0000023BB607B68D3F800227B68D3F81032BE
:1054F00010461946FFF78AFA0346FB73FB7B002B25
:1055000000D01FE07B68D3F814321B78E52B05D060
:105510007B68D3F814321B78002B08D1BB680133A9
:10552000BB60BA683B689A4200D10BE001E00023FF
:10553000BB6078680121FFF7CFFE0346FB73FB7B5E
:10554000002BCFD0FB7B042B01D10723FB73FB7B0C
:1055500018461037BD4680BD80B485B000AF786076
:1055600039603B681B331B781B029AB23B681A33C5
:105570001B7813439BB29BB2FB607B6893F80032AD
:10558000032B0ED13B6815331B781B029AB23B6884
:1055900014331B7813439BB29BB21B04FA6813436A
:1055A000FB60FB6818461437BD465DF8047B704706
:1055B00080B483B000AF786039607B681A333A6892
:1055C000D2B21A707B681B333A6892B2120A92B256
:1055D000D2B21A707B6814333A68120CD2B21A70C5
:1055E0007B6815333A68120C92B2120A92B2D2B2A8
:1055F0001A700C37BD465DF8047B704780B586B0E5
:1056000000AF786039603B681B7823F040035A1E76
:1056100013465B0013449B0013447B6100233B61F2
:105620000123FB8140F6A823C0F604033A69134422
:105630001B7801333A6813441B781B029AB240F678
:10564000A823C0F6040339690B441B7839680B445E
:105650001B7813439BB2BB81FB89002B18D0BB89FD
:105660001846FEF709F90346FB817B69FE2B0DD82E
:105670007B695A1C7A615B007A6813441B88184660
:10568000FEF7FAF80346FA899A4208D000231FE091
:10569000BA894FF6FF739A4201D0002318E03B69A4
:1056A00001333B613B690C2BBCD93B681B7803F091
:1056B0004003002B0BD0FB89002B08D07B695B00DB
:1056C0007A6813441B88002B01D0002300E00123DB
:1056D00018461837BD4680BD80B487B000AF7860EB
:1056E00039603B681B7803F03F035A1E13465B008A
:1056F00013449B0013447B6100233B610123FB8126
:1057000040F6A823C0F604033A6913441B7801331A
:105710003A6813441B781B029AB240F6A823C0F6DD
:10572000040339690B441B7839680B441B78134315
:105730009BB2BB81FB89002B0FD07B69FE2B01D96B
:10574000002329E07B695A1C7A615B007A68134464
:10575000BA89FA81FA891A8006E0BA894FF6FF738E
:105760009A4201D0002317E03B6901333B613B695A
:105770000C2BC5D93B681B7803F04003002B0AD0E3
:105780007B69FE2B01D9002306E07B695B007A6808
:10579000134400221A80012318461C37BD465DF8C9
:1057A000047B704780B489B000AFF860B960FA71CB
:1057B000BB71BB680D33BA791A70BB680B330F220B
:1057C0001A70BB680C3300221A70BB681A330022AF
:1057D0001A70BB681B3300221A70FB795A1E1346DD
:1057E0005B0013449B001344FB610023FB820023F6
:1057F000BB61FA8A4FF6FF739A4207D0FB695A1CC5
:10580000FA615B00FA6813441B88FB8240F6A82308
:10581000C0F60403BA6913441B78BA681344FA8AC1
:10582000D2B21A7040F6A823C0F60403BA69134432
:105830001B780133BA681344FA8A120A92B2D2B2C0
:105840001A70FB8A002B02D14FF6FF73FB82BB69F3
:105850000133BB61BB690C2BCBD9FA8A4FF6FF73BE
:105860009A4206D0FB695B00FA6813441B88002B40
:1058700003D1FB7943F04003FB71BB68FA791A70DE
:105880002437BD465DF8047B704700BF80B58AB001
:1058900000AFF860B9607A607B80F868B9680B2265
:1058A000FEF700FE7B88052B0FD97B889AB2520841
:1058B000DB0313439AB27B68991C79601B881344FD
:1058C0007B807B681B88002BEFD107233B627B88A2
:1058D000DBB203F00F03DBB2303387F8273097F8E1
:1058E0002730392B04D997F82730073387F827302A
:1058F0003B6A5A1E3A6207F128010B4497F82720A9
:1059000003F8142C7B881B097B807B88002BDED15D
:1059100007F114023B6A13447E221A700023FB61D4
:1059200002E0FB690133FB61FA693B6A9A4205D2E6
:10593000FA68FB6913441B78202BF2D1FB695A1CCF
:10594000FA61FA681A443B6A072B08D83B6A591C6B
:10595000396207F128010B4413F8143C00E02023BE
:105960001370FB69072BE9D92837BD4680BD00BFFE
:1059700080B485B000AF78600023FB730B23BB605D
:10598000FB7BDAB25208DB011343DAB27B68591CA5
:1059900079601B781344FB73BB68013BBB60BB6839
:1059A000002BEDD1FB7B18461437BD465DF8047B18
:1059B000704700BF80B586B000AF7860786800217E
:1059C000FFF7F2FB0346FB75FB7D002B01D0FB7D4F
:1059D0009DE0FF233B753B7D7B757B68D3F8002200
:1059E0007B68D3F8103210461946FFF70FF80346CC
:1059F000FB75FB7D002B00D088E07B68D3F8143268
:105A00003B613B691B78BB75BB7D002B02D1042336
:105A1000FB757BE03B690B331B7803F03F03FB73A3
:105A2000BB7DE52B07D0FB7B03F00803002B05D0E3
:105A3000FB7B0F2B02D0FF237B755DE0FB7B0F2BE5
:105A400033D17B68D3F82032002B55D0BB7D03F0D7
:105A50004003002B0ED03B695B7B3B75BB7D23F085
:105A60004003BB75BB7D7B757B68B3F806227B6802
:105A7000A3F82422BA7D7B7D9A4213D13B690D3372
:105A80001B783A7D9A420DD17B68D3F820321846B4
:105A90003969FFF7B3FD0346002B03D07B7D013B43
:105AA000DBB200E0FF237B7526E07B7D002B07D176
:105AB0003869FFF75DFF03463A7D9A4200D125E041
:105AC000FF237B757B684FF6FF72A3F824227B6867
:105AD000D3F818320B331B7803F00103002B0BD1E2
