:020000040802F0
:1000000000000220D5A0030879D1030885D1030898
:10001000A1D10308A9D10308B1D103080000000051
:10002000000000000000000000000000B9D103083B
:10003000C5D1030800000000D1D10308DDD10308B9
:10004000C5A00308EDD10308F5D10308AD9A030854
:10005000AD940308FDD1030805D2030811D20308AB
:100060001DD2030825D203082DD2030835D2030878
:100070003DD2030845D203084DD2030855D20308E8
:100080005DD2030865D203080D8E0308ED910308C5
:100090005191030811920308199203086DD20308C5
:1000A00075D203087DD2030885D203088DD20308D8
:1000B00095D203089DD20308A5D203081D97030813
:1000C000259703082D97030835970308399C0308E3
:1000D000419C0308719E0308B99E0308019F030811
:1000E000ADD20308B59A0308B9D20308C1D20308F8
:1000F000C9D20308D1D20308D9D20308E1D2030838
:10010000E9D20308F1D20308F9D20308499C030895
:10011000519C0308999C030801D3030809D30308E1
:1001200011D3030819D3030821D3030829D30308E3
:1001300031D3030839D3030841D3030805940308D6
:1001400069930308299403083194030849D30308E9
:1001500061D3030869D3030871D30308499F0308D7
:100160003D9703084597030841A1030841A10308EF
:1001700079D3030881D3030889D3030891D30308F3
:1001800099D30308000000000000000000000000F8
:10019000E8EE03080000022081F0004102E000BF09
:1001A00083F0004330B54FEA41044FEA430594EA37
:1001B000050F08BF90EA020F1FBF54EA000C55EA72
:1001C000020C7FEA645C7FEA655C00F0E2804FEA43
:1001D0005454D4EB5555B8BF6D420CDD2C4480EA25
:1001E000020281EA030382EA000083EA010180EA55
:1001F000020281EA0303362D88BF30BD11F0004FA3
:100200004FEA01314FF4801C4CEA113102D04042D8
:1002100061EB410113F0004F4FEA03334CEA133313
:1002200002D0524263EB430394EA050F00F0A7802B
:10023000A4F10104D5F1200E0DDB02FA0EFC22FA26
:1002400005F2801841F1000103FA0EF2801843FA1A
:1002500005F359410EE0A5F120050EF1200E012A0B
:1002600003FA0EFC28BF4CF0020C43FA05F3C01849
:1002700051EBE37101F0004507D54FF0000EDCF1C2
:10028000000C7EEB00006EEB0101B1F5801F1BD36B
:10029000B1F5001F0CD349085FEA30004FEA3C0C6F
:1002A00004F101044FEA445212F5800F80F09A8065
:1002B000BCF1004F08BF5FEA500C50F1000041EB69
:1002C000045141EA050130BD5FEA4C0C404141EB6D
:1002D000010111F4801FA4F10104E9D191F0000F94
:1002E00004BF01460020B1FA81F308BF2033A3F117
:1002F0000B03B3F120020CDA0C3208DD02F1140C0E
:10030000C2F10C0201FA0CF021FA02F10CE002F148
:100310001402D8BFC2F1200C01FA02F120FA0CFC41
:10032000DCBF41EA0C019040E41AA2BF01EB04518A
:10033000294330BD6FEA04041F3C1CDA0C340EDC88
:1003400004F11404C4F1200220FA04F001FA02F3CB
:1003500040EA030021FA04F345EA030130BDC4F189
:100360000C04C4F1200220FA02F001FA04F340EA7E
:100370000300294630BD21FA04F0294630BD94F02F
:10038000000F83F4801306BF81F480110134013D16
:100390004EE77FEA645C18BF7FEA655C29D094EA87
:1003A000050F08BF90EA020F05D054EA000C04BF05
:1003B0001946104630BD91EA030F1EBF00210020F0
:1003C00030BD5FEA545C05D14000494128BF41F08F
:1003D000004130BD14F580043CBF01F5801130BDF3
:1003E00001F0004545F0FE4141F470014FF000007E
:1003F00030BD7FEA645C1ABF194610467FEA655C2F
:100400001CBF0B46024650EA013406BF52EA0335D0
:1004100091EA030F41F4002130BD00BF90F0000FBE
:1004200004BF0021704730B54FF4806404F13204FA
:100430004FF000054FF0000150E700BF90F0000FB3
:1004400004BF0021704730B54FF4806404F13204DA
:1004500010F0004548BF40424FF000013EE700BFAA
:1004600042004FEAE2014FEA31014FEA02701FBF3A
:1004700012F07F4393F07F4F81F06051704792F00C
:10048000000F14BF93F07F4F704730B54FF4607486
:1004900001F0004521F0004120E700BF50EA0102D1
:1004A00008BF704730B54FF000050AE050EA01027E
:1004B00008BF704730B511F0004502D5404261EBEE
:1004C00041014FF4806404F132045FEA915C3FF42F
:1004D000DCAE4FF003025FEADC0C18BF03325FEAC8
:1004E000DC0C18BF033202EBDC02C2F1200300FA7D
:1004F00003FC20FA02F001FA03FE40EA0E0021FAA2
:1005000002F11444C1E600BF70B54FF0FF0C4CF48B
:10051000E06C1CEA11541DBF1CEA135594EA0C0F41
:1005200095EA0C0F00F0DEF82C4481EA030621EA7C
:100530004C5123EA4C5350EA013518BF52EA0335B7
:1005400041F4801143F4801338D0A0FB02CE4FF069
:100550000005E1FB02E506F00042E0FB03E54FF099
:100560000006E1FB03569CF0000F18BF4EF0010E91
:10057000A4F1FF04B6F5007F64F5407404D25FEA8D
:100580004E0E6D4146EB060642EAC62141EA555140
:100590004FEAC52040EA5E504FEACE2EB4F1FD0C82
:1005A00088BFBCF5E06F1ED8BEF1004F08BF5FEA00
:1005B000500E50F1000041EB045170BD06F00046B2
:1005C00046EA010140EA020081EA0301B4EB5C045F
:1005D000C2BFD4EB0C0541EA045170BD41F4801157
:1005E0004FF0000E013C00F3AB8014F1360FDEBF7C
:1005F000002001F0004170BDC4F10004203C35DA58
:100600000C341BDC04F11404C4F1200500FA05F3DA
:1006100020FA04F001FA05F240EA020001F000427B
:1006200021F0004110EBD37021FA04F642EB0601F1
:100630005EEA430E08BF20EAD37070BDC4F10C041B
:10064000C4F1200500FA04F320FA05F001FA04F2DF
:1006500040EA020001F0004110EBD37041F10001CB
:100660005EEA430E08BF20EAD37070BDC4F12005D6
:1006700000FA05F24EEA020E20FA04F301FA05F23E
:1006800043EA020321FA04F001F0004121FA04F2E6
:1006900020EA020000EBD3705EEA430E08BF20EAB6
:1006A000D37070BD94F0000F0FD101F000464000F0
:1006B00041EB010111F4801F08BF013CF7D041EA72
:1006C000060195F0000F18BF704703F00046520076
:1006D00043EB030313F4801F08BF013DF7D043EA47
:1006E0000603704794EA0C0F0CEA135518BF95EAFD
:1006F0000C0F0CD050EA410618BF52EA4306D1D184
:1007000081EA030101F000414FF0000070BD50EAA2
:10071000410606BF1046194652EA430619D094EA2C
:100720000C0F02D150EA013613D195EA0C0F05D116
:1007300052EA03361CBF104619460AD181EA03016A
:1007400001F0004141F0FE4141F470014FF0000022
:1007500070BD41F0FE4141F4780170BD70B54FF0BD
:10076000FF0C4CF4E06C1CEA11541DBF1CEA13553D
:1007700094EA0C0F95EA0C0F00F0A7F8A4EB05041F
:1007800081EA030E52EA03354FEA013100F0888016
:100790004FEA03334FF0805545EA131343EA1263DF
:1007A0004FEA022245EA111545EA10654FEA002694
:1007B0000EF000419D4208BF964244F1FD0404F54D
:1007C000407402D25B084FEA3202B61A65EB0305A9
:1007D0005B084FEA32024FF480104FF4002CB6EB66
:1007E000020E75EB030E22BFB61A754640EA0C00E6
:1007F0005B084FEA3202B6EB020E75EB030E22BF26
:10080000B61A754640EA5C005B084FEA3202B6EB66
:10081000020E75EB030E22BFB61A754640EA9C0025
:100820005B084FEA3202B6EB020E75EB030E22BFF5
:10083000B61A754640EADC0055EA060E18D04FEAB3
:10084000051545EA16754FEA06164FEAC30343EA53
:1008500052734FEAC2025FEA1C1CC0D111F4801F20
:100860000BD141EA00014FF000004FF0004CB6E719
:1008700011F4801F04BF01430020B4F1FD0C88BFB8
:10088000BCF5E06F3FF6AFAEB5EB030C04BFB6EBC3
:10089000020C5FEA500C50F1000041EB045170BDB6
:1008A0000EF0004E4EEA113114EB5C04C2BFD4EBE3
:1008B0000C0541EA045170BD41F480114FF0000E67
:1008C000013C90E645EA060E8DE60CEA135594EAE3
:1008D0000C0F08BF95EA0C0F3FF43BAF94EA0C0FE6
:1008E0000AD150EA01347FF434AF95EA0C0F7FF45B
:1008F00025AF104619462CE795EA0C0F06D152EAAF
:1009000003353FF4FDAE1046194622E750EA410692
:1009100018BF52EA43067FF4C5AE50EA41047FF4A3
:100920000DAF52EA43057FF4EBAE12E74FF0FF3C08
:1009300006E000BF4FF0010C02E000BF4FF0010CD9
:100940004DF804CD4FEA410C7FEA6C5C4FEA430C52
:1009500018BF7FEA6C5C1BD001B050EA410C0CBFA1
:1009600052EA430C91EA030F02BF90EA020F002003
:10097000704710F1000F91EA030F58BF994208BF6A
:1009800090422CBFD8176FEAE37040F00100704727
:100990004FEA410C7FEA6C5C02D150EA013C07D17E
:1009A0004FEA430C7FEA6C5CD6D152EA033CD3D0C9
:1009B0005DF8040B704700BF8446104662468C46C3
:1009C0001946634600E000BF01B5FFF7B7FF0028F6
:1009D00048BF10F1000F01BD4DF808EDFFF7F4FF1F
:1009E0000CBF012000205DF808FB00BF4DF808EDAA
:1009F000FFF7EAFF34BF012000205DF808FB00BFCD
:100A00004DF808EDFFF7E0FF94BF012000205DF8EE
:100A100008FB00BF4DF808EDFFF7CEFF94BF0120A3
:100A200000205DF808FB00BF4DF808EDFFF7C4FF9C
:100A300034BF012000205DF808FB00BF4FEA4102EF
:100A400012F5001215D211D56FF47873B3EB625220
:100A500012D94FEAC12343F0004343EA505311F047
:100A6000004F23FA02F018BF404270474FF00000D9
:100A7000704750EA013005D111F0004008BF6FF017
:100A8000004070474FF00000704700BF80F000400A
:100A900002E000BF81F0004142001FBF5FEA410356
:100AA00092EA030F7FEA226C7FEA236C6AD04FEA56
:100AB0001262D2EB1363C1BFD2184140484041409B
:100AC000B8BF5B42192B88BF704710F0004F40F44D
:100AD000000020F07F4018BF404211F0004F41F469
:100AE000000121F07F4118BF494292EA030F3FD035
:100AF000A2F1010241FA03FC10EB0C00C3F1200348
:100B000001FA03F100F0004302D5494260EB4000D6
:100B1000B0F5000F13D3B0F1807F06D340084FEA41
:100B2000310102F10102FE2A51D2B1F1004F40EB36
:100B3000C25008BF20F0010040EA0300704749009E
:100B400040EB000010F4000FA2F10102EDD1B0FA69
:100B500080FCACF1080CB2EB0C0200FA0CF0AABF5E
:100B600000EBC25052421843BCBFD04018437047FC
:100B700092F0000F81F4000106BF80F40000013202
:100B8000013BB5E74FEA41037FEA226C18BF7FEAD9
:100B9000236C21D092EA030F04D092F0000F08BF1B
:100BA0000846704790EA010F1CBF0020704712F002
:100BB0007F4F04D1400028BF40F00040704712F141
:100BC00000723CBF00F50000704700F0004343F0A6
:100BD000FE4040F4000070477FEA226216BF0846DC
:100BE0007FEA23630146420206BF5FEA412390EA9F
:100BF000010F40F4800070474FF0000304E000BF95
:100C000010F0004348BF40425FEA000C08BF704745
:100C100043F0964301464FF000001CE050EA010209
:100C200008BF70474FF000030AE000BF50EA01021E
:100C300008BF704711F0004302D5404261EB41010B
:100C40005FEA010C02BF84460146002043F0B64330
:100C500008BFA3F18053A3F50003BCFA8CF2083A55
:100C6000A3EBC25310DB01FA02FC634400FA02FC5E
:100C7000C2F12002BCF1004F20FA02F243EB020065
:100C800008BF20F00100704702F1200201FA02FCC7
:100C9000C2F1200250EA4C0021FA02F243EB0200BA
:100CA00008BF20EADC7070474FF0FF0C1CEAD052FE
:100CB0001EBF1CEAD15392EA0C0F93EA0C0F6FD0BF
:100CC0001A4480EA010C400218BF5FEA41211ED09D
:100CD0004FF0006343EA501043EA5111A0FB013189
:100CE0000CF00040B1F5000F3EBF490041EAD3715E
:100CF0005B0040EA010062F17F02FD2A1DD8B3F1DA
:100D0000004F40EBC25008BF20F00100704790F048
:100D1000000F0CF0004C08BF49024CEA502040EA9A
:100D200051207F3AC2BFD2F1FF0340EAC250704760
:100D300040F400004FF00003013A5DDC12F1190F9E
:100D4000DCBF00F000407047C2F10002410021FA10
:100D500002F1C2F1200200FA02FC5FEA310040F128
:100D6000000053EA4C0308BF20EADC70704792F0A1
:100D7000000F00F0004C02BF400010F4000F013AD9
:100D8000F9D040EA0C0093F0000F01F0004C02BFD4
:100D9000490011F4000F013BF9D041EA0C018FE743
:100DA0000CEAD15392EA0C0F18BF93EA0C0F0AD049
:100DB00030F0004C18BF31F0004CD8D180EA01006F
:100DC00000F00040704790F0000F17BF90F0004F08
:100DD000084691F0000F91F0004F14D092EA0C0FEA
:100DE00001D142020FD193EA0C0F03D14B0218BF7D
:100DF000084608D180EA010000F0004040F0FE40C3
:100E000040F40000704740F0FE4040F4400070475E
:100E10004FF0FF0C1CEAD0521EBF1CEAD15392EADD
:100E20000C0F93EA0C0F69D0A2EB030280EA010CCD
:100E300049024FEA402037D04FF0805343EA111166
:100E400043EA10130CF000408B4238BF5B0042F1C4
:100E50007D024FF4000C8B4224BF5B1A40EA0C0069
:100E6000B3EB510F24BFA3EB510340EA5C00B3EB9B
:100E7000910F24BFA3EB910340EA9C00B3EBD10F89
:100E800024BFA3EBD10340EADC001B0118BF5FEADB
:100E90001C1CE0D1FD2A3FF650AF8B4240EBC25004
:100EA00008BF20F0010070470CF0004C4CEA5020C5
:100EB0007F32C2BFD2F1FF0340EAC250704740F414
:100EC00000004FF00003013A37E792F0000F00F006
:100ED000004C02BF400010F4000F013AF9D040EA84
:100EE0000C0093F0000F01F0004C02BF490011F418
:100EF000000F013BF9D041EA0C0195E70CEAD15310
:100F000092EA0C0F08D142027FF47DAF93EA0C0FF6
:100F10007FF470AF084676E793EA0C0F04D14B02DA
:100F20003FF44CAF08466EE730F0004C18BF31F08C
:100F3000004CCAD130F000427FF45CAF31F0004386
:100F40007FF43CAF5FE700BF4FF0FF3C06E000BF1F
:100F50004FF0010C02E000BF4FF0010C4DF804CD42
:100F60004FEA40024FEA41037FEA226C18BF7FEA52
:100F7000236C11D001B052EA530C18BF90EA010F54
:100F800058BFB2EB030088BFC81738BF6FEAE170E3
:100F900018BF40F0010070477FEA226C02D15FEA7F
:100FA000402C05D17FEA236CE4D15FEA412CE1D0EB
:100FB0005DF8040B704700BF844608466146FFE7B2
:100FC0000FB5FFF7C9FF002848BF10F1000F0FBD94
:100FD0004DF808EDFFF7F4FF0CBF012000205DF88D
:100FE00008FB00BF4DF808EDFFF7EAFF34BF012012
:100FF00000205DF808FB00BF4DF808EDFFF7E0FFAB
:1010000094BF012000205DF808FB00BF4DF808EDFB
:10101000FFF7D2FF94BF012000205DF808FB00BF5E
:101020004DF808EDFFF7C8FF34BF012000205DF840
:1010300008FB00BF8307C9B270B43FD0541E2AB367
:1010400003788B4223D0431C04E0FCB1057814469E
:101050008D421CD013F0030F184604F1FF3203F148
:101060000103F2D1032C14D8651E4CB303788B42D4
:101070000DD0421C002302E004788C4207D0AB4222
:10108000104603F1010302F10102F5D1002070BC0A
:10109000704741EA0126034646EA064618460433ED
:1010A00002687240A2F1013525EA020212F0803F87
:1010B000DAD1043C1846032CF0D8D5E71446D1E722
:1010C0002046E4E7032A70B412D940EA01039B07E3
:1010D0000FD10C46034621461846043404330D68EC
:1010E0000668AE4204D1043A1846032A2146F2D8D3
:1010F000C2B105780C78A54204BF02F1FF3200238B
:1011000006D00CE010F8015F11F8014FA54206D19E
:10111000934203F10103F5D1002070BC7047281BF6
:1011200070BC70471046F8E70F2AF0B445D940EA82
:1011300001039B0745D1A2F110070C4603463F0966
:1011400000EB0716103625681033103443F8105C96
:1011500054F80C5C43F80C5C54F8085C43F8085CE9
:1011600054F8045C43F8045CB342ECD17B1C02F0FD
:101170000F0CBCF1030F4FEA03131944034422D9A7
:101180000E461D46644656F8047B043C032C45F885
:10119000047BF8D8ACF1040402F0030224F0030449
:1011A00004342344214432B10A4411F8014B9142E2
:1011B00003F8014BF9D1F0BC70470346002AF3D184
:1011C000F9E70346F0E76246002AEDD1F3E700BFF6
:1011D0008307F0B448D0541E002A43D0CDB2034652
:1011E00002E0002C3ED0144603F8015B13F0030F1D
:1011F00004F1FF32F5D1032C2DD9CDB20F2C45EAE5
:10120000052545EA054518D9A4F1100703F1100694
:101210001A463F0906EB07161560103242F80C5CBF
:1012200042F8085C42F8045CB242F5D104F00F04C5
:101230000137032C03EB07130DD91E462246043A4F
:1012400046F8045B032AFAD8221F04F0030422F0B4
:101250000302043213442CB1C9B21C4403F8011B2D
:10126000A342FBD1F0BC704714460346C3E700BF5E
:10127000C1F30A5C2DE9F843ACF2FF33132B0646A9
:101280000F4613DC002B40DB4FF6FF7CC0F20F0C47
:101290004CFA03F303EA010C5CEA000C1CD107F0E2
:1012A0000041C2E900676046BDE8F883332B1EDCCD
:1012B0004FF0FF33ACF2134C23FA0CFC1CEA000392
:1012C0001CD020EA0C060F460B46C2E900673246E6
:1012D000FEF766FFBDE8F88321EA030700263B46D8
:1012E000C2E900673246FEF75BFFBDE8F88307F00E
:1012F0000041C2E900670020BDE8F88307F0004123
:10130000C2E900671846BDE8F88307F000494FF0CE
:101310000008C2E90089BDE8F88300BF830770B503
:1013200006461FD10368A3F1013222EA030313F03A
:10133000803F08BF031D15D1184653F8044BA4F194
:10134000013525EA040414F0803FF5D003782BB171
:10135000431C184601330478002CFAD100F09EF9A2
:10136000304670BD3046F1E7C9B2F0B4002947D02D
:1013700084070FD00278002A3FD091423ED0431C10
:1013800005E013F8012B002A37D0914236D09A0796
:101390001846F6D141EA0127036847EA0747A3F157
:1013A000013483EA070224EA0303A2F1013424EAA8
:1013B0000202134313F0803F11D1021D104652F870
:1013C000043B83EA0704A3F10136A4F1013526EAC0
:1013D000030325EA0404234313F0803FEED003788F
:1013E000002B3BD0994209D0431C01E0914205D02B
:1013F000184613F8012B002AF8D11046F0BC7047AC
:1014000081070DD00378002BF8D0431C02E002784E
:10141000002AF3D013F0030F184603F10103F6D1AD
:101420000368A3F1013222EA030313F0803F0AD1DB
:10143000031D184653F8042BA2F1013121EA0202E0
:1014400012F0803FF5D00378002BD7D0431C18460C
:1014500001330278002AFAD1F0BC70471846CDE774
:1014600040EA010C1CF0070F27D1BDF1100DCDE9AA
:101470000245CDE900676FF000064FF0000700BF9E
:10148000F0E80223F1E80245A242A2F1013C2CEA75
:10149000020C0CF0803C08BFBCF1000F40F0E5806E
:1014A000AB42A3F1013C2CEA030C0CF0803C08BFDA
:1014B000BCF1000F40F0D680E2E710F0030C21D021
:1014C00020F0030050F8042B5FEACC7C08D00FD248
:1014D00011F801CB5FFA92F3B3EB0C0C10D17BB196
:1014E00011F801CB5FFAA2F3B3EB0C0C08D13BB1BE
:1014F00011F801CB5FFAB2F3B3EB0C0C00D10BB9CE
:1015000060467047BDF1100DCDE90245CDE9006799
:101510006FF000064FF0000711F0030C33D110F00C
:10152000040F0FD050F8042B51F8044BA242A2F143
:10153000013C2CEA020C0CF0803C08BFBCF1000F0F
:1015400040F0938011F0040F99D051F8045B00BF74
:10155000F0E80223AA42A2F1013C2CEA020C0CF0B2
:10156000803C08BFBCF1000F79D1F1E80245A342ED
:10157000A3F1013C2CEA030C0CF0803C08BFBCF149
:10158000000F69D1E4E721F00301BCF1020F20D084
:101590003FDA51F8045B00BF50F8043B4FEA1525D1
:1015A000A3F1013C2CEA030C0CF0803CB7EB0C2FB0
:1015B00003EA162208BFAA4251D151F8045BBCF1DC
:1015C000000F82EA03034FEA056208BF934240D14D
:1015D000E2E751F8045B00BF50F8043B4FEA1545C1
:1015E000A3F1013C2CEA030C0CF0803CB7EB0C4F50
:1015F00003EA164208BFAA4231D151F8045BBCF19C
:10160000000F82EA03034FEA054208BF934220D14C
:10161000E2E751F8045B00BF50F8043B4FEA156560
:10162000A3F1013C2CEA030C0CF0803CB7EB0C6FEF
:1016300003EA166208BFAA4211D151F8045BBCF15B
:10164000000F82EA03034FEA052208BF934200D14C
:10165000E2E719BA12BA0AE019BA22BA07E011BAD7
:101660002ABA04E019BA2ABA01E011BA22BA9CFADD
:101670008CF0DDE90067DDE902451DF1100D38B1A0
:10168000B0FA80F0C0F1180021FA00F122FA00F25D
:101690000120914298BF8041704700BF80EA01025B
:1016A000844612F0030F4FD111F0030F32D14DF8E1
:1016B000044D11F0040F51F8043B0BD0A3F101329B
:1016C0009A4312F0803F04BF4CF8043B51F8043BAE
:1016D00016D100BF51F8044BA3F101329A4312F026
:1016E000803FA4F101320BD14CF8043BA24312F02D
:1016F000803F04BF51F8043B4CF8044BEAD023462A
:101700000CF8013B13F0FF0F4FEA3323F8D15DF8DB
:10171000044B704711F0010F06D011F8012B0CF8A3
:10172000012B002A08BF704711F0020FBFD031F81B
:10173000022B12F0FF0F16BF2CF8022B8CF80020A2
:1017400012F47F4FB3D1704711F8012B0CF8012B25
:10175000002AF9D1704700BF20F0030110F0030008
:10176000C0F1000051F8043B00F1040C4FEACC0C2E
:101770006FF000021CBF22FA0CF213434FF0010C71
:101780004CEA0C2C4CEA0C4CA3EB0C0222EA0302B0
:1017900012EACC1204BF51F8043B0430F4D013F029
:1017A000FF0F1FBF013013F47F4F013013F47F0F81
:1017B00018BF0130704700BFF0B4002A4BD040EA98
:1017C000010313F003032DD1032A2BD904680D68FC
:1017D000AC4227D1043A3ED0A4F1013525EA0404F5
:1017E00014F0803F3DD10C4605460EE06B6805467F
:1017F00066680C46A3F10137B34227EA030711D10B
:10180000043A28D017F0803F28D1032A00F10400C1
:1018100001F10401EAD8561E2AB928792279801AE2
:10182000F0BC7047561E03780A7893421BD1E6B18C
:10183000BBB101368B1C0446314405E08B4203F1F9
:1018400001030BD00028EBD014F8010F13F8012C82
:101850009042F3D0E3E71046F0BC70470020F0BCA4
:1018600070471846DCE71846D9E73046D8E700BF8E
:1018700040EA01039B0770B42BD1032A84BF0B46B7
:10188000054626D9194653F8044BA4F1013626EA39
:10189000040616F0803F05D1043A45F8044B032AAC
:1018A0001946EFD89AB10C78013A6B1C2C703CB1F8
:1018B0006AB111F8014F013A03F8014B002CF7D13E
:1018C0002AB11A44002103F8011B9342FBD170BCDA
:1018D00070470546E6E700BFF0B404780CB30E7815
:1018E0000746C6B1A64210D04B1C01E094420BD073
:1018F0001D4613F8012B002AF8D144780130002C42
:10190000EED12E78074600E02646002E14BF38465A
:101910000020F0BC704744780D460130002CDFD128
:10192000EFE72046F0BC704738B502460C4600256C
:1019300011B909E0421C054610462146FFF714FD87
:101940000028F7D1284638BDBDE83840FFF70CBD68
:101950004FF0010C2DE9F003644600254FF0FF36EF
:10196000631987198B420DD23F5D10F80380B8458B
:101970002FD21D460124C6EB030C63198B4200EBEA
:101980000607F1D34FF0010900254C464FF0FF3711
:10199000C2F800C0631900EB070C99420ED91CF87D
:1019A00004C010F80380E0451AD91D460124C7EB96
:1019B00003096319994200EB070CF0D8013701368F
:1019C000B74226BFC2F8009038463046BDE8F00363
:1019D00070470CD04FF0010C2E4664466544BFE7BB
:1019E0000CD04FF001092F464C464D44D2E76445D8
:1019F00004F10104B4D11D460124B1E74C4504F1C2
:101A00000104C7D11D460124C4E700BF2DE9F04FF2
:101A1000ADF2244D164680460D461046194607AADB
:101A20001C46FFF795FF07AB0DF21C42039043F8ED
:101A3000044F9342FBD1671E002308A834B1F25C27
:101A4000F91A0133A34240F82210F8D10799304621
:101A5000039A3144FFF736FB002840F08180DDF81F
:101A60000CC02A468246671E0CF1FF3CCDF808C028
:101A7000B444CDF810C0DDF80CC005460196CCF199
:101A8000010CCDF814C008E025B1079A934238BF85
:101A9000C2EB04039A44002532460AEB040608EB25
:101AA00002000021B21AFFF7C5FA002853D1002E18
:101AB00051D008EB060308A913F8013C51F8233074
:101AC000002BE1D1039A954228BF2A46BA4212D28E
:101AD000019908EB0A03985C11F802C0114484458F
:101AE00006D032E011F8010F13F802C084452CD162
:101AF0000132BA42F6D3039B02989D4228BF184692
:101B00001CD2DDF810C008EB0A039CF80010DDF8C9
:101B100008C013F80C20914240F08680DDF804B034
:101B2000049AAB4406E012F8019D13F801C0E145A8
:101B300004D108465A4500F1FF31F4D10135854200
:101B400074D8079DAA44651BA6E7DDF814C00025DC
:101B5000E2449244A0E700200DF2244DBDE8F08F4E
:101B6000DDF80CC02A46DDF80CA04FF0000BCCEBE2
:101B700004030DF12009634538BF6346671E013336
:101B8000254607930CF1FF33B444CDF808C0DDF8C7
:101B90000CC00193CCF1010CCDF810C00BEB050487
:101BA00008EB02000021A21AFFF744FA0028D2D164
:101BB000002CD0D008EB040313F8013C59F8233073
:101BC00053BBBA4508EB0B0013D2029B1A7810F8EE
:101BD0000A309A4218BF534621D1029A534605E073
:101BE00012F8011F10F803C08C4518D10133BB4215
:101BF000F6D3019B5A1CAFD0DDF804C016F80C10C8
:101C000010F80C20914206D113F1FF33A4D3F15CFC
:101C1000C25C9142F8D0079B9B442246BEE7DDF8A8
:101C200010C0E3449B44F8E7039887E708EB0A00F9
:101C300092E700BF2DE9F04F8046037887B00E464B
:101C4000002B00F001810A789AB184460131012409
:101C500002E011F8012B5AB1934214BF002404F0A2
:101C600001041CF8013F0D46002BF2D12B7813BB69
:101C70001CB1404607B0BDE8F08F08F10100317893
:101C8000FFF772FBAD1B012D18BF0028074608BFE8
:101C90000046EFD0A844474594BFC7EB0804012491
:101CA0001F2D0CD93846214632462B46FFF7AEFE93
:101CB00007B0BDE8F08F002007B0BDE8F08F2946DF
:101CC00005AA3046FFF744FE0599314400900246CC
:101CD0003046FFF7F7F9002857D1009B834680462E
:101CE0002246013B019333440293009BC3F101035D
:101CF000039308EB0504B8180021A21AFFF79AF91C
:101D00000028D8D1002CD6D0009B9B4528BF5B462D
:101D10009D4214D9F918F05CF21811F808108842A5
:101D200040F08C8007EB080C06E012F8011F1CF84D
:101D30000300884240F0828001339D42F5D8009B29
:101D400001995B4540F28380029B07EB08091A78F2
:101D500019F801309A427AD1029B06EB0B0A06E091
:101D600013F801CD19F80200844504D111465345FA
:101D700001F1FF32F4D10BF1010B8B4569D8059BC2
:101D80009844C3EB050B2246B3E700984FF0000BD5
:101D900022462B1A8146834238BF0346B1440133A1
:101DA0000593009B38440190C3F101030293009B0B
:101DB00003F1FF389A460BEB0504B8180021A21A6C
:101DC000FFF738F900287FF476AF002C3FF473AFAB
:101DD000554598BF07EB0B0014D9019899F80020DE
:101DE00010F80B309A4224D14A46534607EB0B00B9
:101DF00005E012F8011F10F803C08C451AD1013319
:101E00009D42F6D8B8F1FF3F43463FF433AF16F892
:101E1000081010F80820914207D113F1FF33FFF4A6
:101E200029AFF15CC25C9142F7D0059B9B442246EE
:101E3000C1E75346029A93449B44F8E703994FF055
:101E4000000B884498449EE70D4601240EE7009954
:101E500091E707EB08000DE72DE9F04F40F2D4249D
:101E600085B0C2F200048A469B4603900846D4F827
:101E7000008000E02046044614F8015B08EB0503EF
:101E80005B7803F0080303F0FF06002BF2D12D2D41
:101E90006ED02B2D334604BF841C45783BF01001D7
:101EA00016D1DBF1010138BF0021302D09D079B105
:101EB00049F699194FF00A0BC1F69919DC4605212C
:101EC00016E0207800F0DF00582855D000295CD1BA
:101ED00059464FF0FF300192029300F06DF85946D9
:101EE00081464FF0FF3000F095F9019A029BDC46E5
:101EF000002738460CE08D42D4BF00260126484515
:101F000018BF0026EEB90CFB0050012714F8015B46
:101F100008EB0506767816F0040F18BF303D07D1A0
:101F200016F0030610D0012E14BF57263726AD1B1E
:101F3000AB4509DD484594BF0026012656EAD77710
:101F4000D9D04FF0FF37E1E7791C07D073B912B150
:101F500057B95446146005B0BDE8F08F03992223A9
:101F600038460B60002AF6D0013CF3E74042EEE72A
:101F7000841C4578012391E74FF0100B6578DC460F
:101F800002340F216FF07049B2E74FF0080B0721C0
:101F9000DC466FF06049ABE730B440F2D824C2F2BF
:101FA00000040D46134601462A46206830BCFFF760
:101FB00053BF00BF000000004A1E08BF7047C0F0BA
:101FC0002481884240F21681114200F01781B0FA54
:101FD00080F3B1FA81F2A2EB0303C3F11F0304A261
:101FE00002EB03134FF000029F4600BFAFF30080E7
:101FF000B0EBC17F00BF42EB020228BFA0EBC17073
:10200000B0EB817F00BF42EB020228BFA0EB8170E2
:10201000B0EB417F00BF42EB020228BFA0EB417052
:10202000B0EB017F00BF42EB020228BFA0EB0170C2
:10203000B0EBC16F00BF42EB020228BFA0EBC16052
:10204000B0EB816F00BF42EB020228BFA0EB8160C2
:10205000B0EB416F00BF42EB020228BFA0EB416032
:10206000B0EB016F00BF42EB020228BFA0EB0160A2
:10207000B0EBC15F00BF42EB020228BFA0EBC15032
:10208000B0EB815F00BF42EB020228BFA0EB8150A2
:10209000B0EB415F00BF42EB020228BFA0EB415012
:1020A000B0EB015F00BF42EB020228BFA0EB015082
:1020B000B0EBC14F00BF42EB020228BFA0EBC14012
:1020C000B0EB814F00BF42EB020228BFA0EB814082
:1020D000B0EB414F00BF42EB020228BFA0EB4140F2
:1020E000B0EB014F00BF42EB020228BFA0EB014062
:1020F000B0EBC13F00BF42EB020228BFA0EBC130F2
:10210000B0EB813F00BF42EB020228BFA0EB813061
:10211000B0EB413F00BF42EB020228BFA0EB4130D1
:10212000B0EB013F00BF42EB020228BFA0EB013041
:10213000B0EBC12F00BF42EB020228BFA0EBC120D1
:10214000B0EB812F00BF42EB020228BFA0EB812041
:10215000B0EB412F00BF42EB020228BFA0EB4120B1
:10216000B0EB012F00BF42EB020228BFA0EB012021
:10217000B0EBC11F00BF42EB020228BFA0EBC110B1
:10218000B0EB811F00BF42EB020228BFA0EB811021
:10219000B0EB411F00BF42EB020228BFA0EB411091
:1021A000B0EB011F00BF42EB020228BFA0EB011001
:1021B000B0EBC10F00BF42EB020228BFA0EBC10091
:1021C000B0EB810F00BF42EB020228BFA0EB810001
:1021D000B0EB410F00BF42EB020228BFA0EB410071
:1021E000B0EB010F00BF42EB020228BFA0EB0100E1
:1021F000104670470CBF012000207047B1FA81F2F1
:10220000C2F11F0220FA02F0704708B14FF0FF3010
:1022100000F00EB80029F8D02DE90340FFF7CCFEFE
:10222000BDE8064002FB00F3A1EB0301704700BFCD
:10223000704700BF80B582B000AF786039607B68BE
:10224000002B00D127E03B68002B00D123E03B6846
:102250009B68002B00D11EE03B681B7B012B00D943
:1022600019E03B681A687B689A603B685A687B682B
:10227000DA603B689A687B681A613B681A7B7B6806
:102280001A757B681B7D012B02D17B680122DA6005
:10229000786800F003F80837BD4680BD80B582B08D
:1022A00000AF78607B68002B00D115E07B681A696D
:1022B0007B68DB687968896801FB03F310460021BD
:1022C0001A46FEF785FF7B6800221A607B680022B1
:1022D0005A607B6801225A750837BD4680BD00BF31
:1022E00080B485B000AF786039603B68BB607B68C4
:1022F000002B02D03B68002B01D100233DE07B681E
:102300005B7D042B01D1042337E00023FB6012E046
:102310007B681A697B681B681344BA6812781A7064
:10232000BB680133BB607B681B685A1C7B681A6002
:10233000FB680133FB607B68DA68FB689A42E7D888
:102340007B681A687B689B687968C96801FB03F33E
:102350009A4202D37B6800221A607B681A687B6805
:102360005B689A4204D17B6804225A75022304E018
:102370007B6803225A757B685B7D18461437BD461F
:102380005DF8047B704700BF80B582B000AF786015
:1023900039607B68002B02D03B68002B01D1002301
:1023A00030E07B685B7D012B01D101232AE03B6893
:1023B000002B03D07868396800F028F87B685A68E9
:1023C0007B68DB681A447B685A607B685A687B6864
:1023D0009B687968C96801FB03F39A4202D37B6862
:1023E00000225A607B681A687B685B689A4204D155
:1023F0007B6801225A75022304E07B6803225A7528
:102400007B685B7D18460837BD4680BD80B485B0CB
:1024100000AF786039603B68FB607B68002B02D0BE
:102420003B68002B01D1002321E07B685B7D012B01
:1024300001D101231BE07B685B68BB600DE07B681A
:102440001A69BB6813441B78DAB2FB681A70FB6820
:102450000133FB60BB680133BB607B685A687B68F3
:10246000DB681A44BB689A42E9D87B685B7D1846F2
:102470001437BD465DF8047B704700BF80B400AFE1
:1024800072B6BD465DF8047B704700BF80B584B06E
:1024900000AF78607B681A680023C2F6FD731340B2
:1024A000B3F1005F13D17B6804331B68FB60FB68EA
:1024B000BB60FFF7E3FF16F0B1F87B681B681846B6
:1024C00016F05EF8BB6800209847002300E0012367
:1024D00018461037BD4680BD2DE9F047ADF5167D95
:1024E00006AF07F10C0318603B1D1A6007F10B03E0
:1024F0000A461A70002387F83F3244F2EC00C2F219
:10250000000017F0AFF907F1140318464DF2A0319F
:10251000C0F603010DF0D8FF034687F83E3297F866
:102520003E32002B14D097F83E32052B40F0F48059
:102530004DF2A830C0F603004DF2A031C0F6030101
:1025400000F042FF4DF2A030C0F603000EF09EF9FD
:1025500007F1140318460EF041F844F2EC03C2F2FE
:1025600000035B881C4644F2EC03C2F200031B79B3
:102570001A4644F2EC03C2F200035B790092019325
:1025800043F6EC70C2F200004DF2C031C0F6030118
:102590004DF2A032C0F60302234600F029FF43F6B5
:1025A000C050C2F2000043F6EC71C2F200010222F8
:1025B0000CF008FF0346002B1BD043F6C050C2F2BC
:1025C000000043F6EC71C2F2000106220CF0FAFEA4
:1025D0000346002B10D14DF2D830C0F6030043F66D
:1025E000C051C2F200010FF08BF9012387F83F328E
:1025F00002E0012387F83F3297F83F32002B00F0CA
:10260000858043F6C053C2F20003D3F80C3243F680
:10261000C050C2F2000019460DF0F0FC44F2EC0389
:10262000C2F200035B881D4644F2EC03C2F20003D1
:102630001B791C4644F2EC03C2F200035B799A4614
:1026400044F2EC03C2F200039B79994644F2EC0396
:10265000C2F20003DB79984644F2EC03C2F20003B5
:102660001B7A1E4600F06CF90346CDF800A0CDF8A9
:102670000490CDF808800396049343F6EC70C2F200
:1026800000004DF20041C0F603012A46234600F047
:10269000AFFE43F6EC70C2F2000043F6C051C2F246
:1026A00000010FF02DF907F10C03186843F6C05133
:1026B000C2F200010FF024F907F10B031B7843F677
:1026C000EC70C2F200004DF22441C0F603011A463C
:1026D00000F08EFE43F6EC70C2F2000043F6C051EB
:1026E000C2F200010FF00CF93B1D186843F6C0510F
:1026F000C2F200010FF004F94DF22C40C0F60300C5
:1027000043F6C051C2F200010FF0FAF843F6C05090
:10271000C2F200000DF04AFC07F51077BD46BDE897
:10272000F08700BF80B400AF62B6BD465DF8047BA1
:10273000704700BF80B400AF72B6BD465DF8047B41
:10274000704700BF80B584B000AF7860FFF7F2FF3C
:1027500040F2D033C2F200031B68002B02D1FFF716
:10276000E1FF39E040F2D033C2F200031A687B681F
:102770009A420DD140F2D033C2F200031B681A69AD
:1027800040F2D033C2F200031A60FFF7CBFF23E020
:1027900040F2D033C2F200031B68BB6040F2D0337A
:1027A000C2F200031B68FB6004E0BB68FB60BB680F
:1027B0001B69BB60BB681B69002B03D0BA687B68D0
:1027C0009A42F2D1BA687B689A4203D1BB681A690F
:1027D000FB681A61FFF7A6FF1037BD4680BD00BF3A
:1027E00080B584B000AF7860FFF7A4FF7B6800225B
:1027F0001A6140F2D033C2F200031B68002B08D1EB
:1028000040F2D033C2F200037A681A60FFF78AFF01
:1028100047E07B689A6840F2D033C2F200031B683D
:102820009B689A420FD240F2D033C2F200031A687A
:102830007B681A6140F2D033C2F200037A681A60F2
:10284000FFF770FF2DE040F2D033C2F200031B68A7
:10285000FB6040F2D033C2F200031B68BB6004E0AF
:10286000BB68FB60BB681B69BB60BB681B69002B56
:1028700005D0BB689A687B689B689A42F0D9BB68B0
:102880009A687B689B689A4206D97B68BA681A6125
:10289000FB687A681A6102E0BB687A681A61FFF720
:1028A00041FF1037BD4680BD80B500AF40F2CC334C
:1028B000C2F200031B685A1C40F2CC33C2F2000380
:1028C0001A600EE040F2D033C2F200031B6801220E
:1028D0001A7340F2D033C2F200031B681846FFF7A8
:1028E00031FF40F2D033C2F200031B68002B0CD042
:1028F00040F2D033C2F200031B689A6840F2CC3336
:10290000C2F200031B689A42DCD980BD80B485B056
:1029100000AF786040F2CC33C2F200031A687B68E3
:102920001344FB6000BF40F2CC33C2F200031A68CC
:10293000FB689A42F7D31437BD465DF8047B7047B5
:1029400080B400AF40F2CC33C2F200031B681846DB
:10295000BD465DF8047B704780B582B000AF7860FB
:1029600039607868FFF7EEFE40F2CC33C2F2000324
:102970001A687B681A6040F2CC33C2F200031A680E
:102980007B685A6040F2CC33C2F200031A683B689D
:102990001A447B689A607868FFF722FF7B680322FD
:1029A0001A730837BD4680BD80B584B000AF78602B
:1029B0007868FFF7C7FE7B689A687B681B68D31A44
:1029C000FB6040F2CC33C2F200031A687B681A60E5
:1029D00040F2CC33C2F200031A687B685A6040F2BE
:1029E000CC33C2F200031A68FB681A447B689A6011
:1029F0007868FFF7F5FE7B6803221A731037BD462F
:102A000080BD00BF80B582B000AF78607B681B7B63
:102A1000002B00D105E07868FFF794FE7B68002268
:102A20001A730837BD4680BD80B483B000AF7860AC
:102A30007B681B7B012B01D1012300E0002318469A
:102A40000C37BD465DF8047B704700BF80B483B08F
:102A500000AF78607B681B7B032B01D1012300E072
:102A6000002318460C37BD465DF8047B704700BF55
:102A700080B483B000AF78607B681A6840F2CC33D2
:102A8000C2F200031B689A4201D9002311E07B685F
:102A90001B7B022B05D17B685A687B681B68D31AA5
:102AA00007E040F2CC33C2F200031A687B681B686F
:102AB000D31A18460C37BD465DF8047B704700BF3B
:102AC00080B582B000AF786039603B689A687B68F7
:102AD0001A603B68DA687B685A603B681A8A7B68D0
:102AE0001A813B689A7C7B689A727B6803F10B02BF
:102AF0003B681333104619460722FEF7B9FE3B68C0
:102B0000DB7E072B02D93B680722DA763B68DA7E48
:102B10007B689A743B68DA697B685A613B681A6A19
:102B20007B681A63786800F00DF83B681B68002B1F
:102B300005D03B681B683A685268104698470837CA
:102B4000BD4680BD80B582B000AF78607B68002252
:102B50001A837B6800229A767B681C331846FFF73D
:102B600051FF0837BD4680BD80B584B000AF7860A6
:102B70007B681B68002B00F0FA807B689B7E012B32
:102B800000F09A80022B00F0D480002B40F0EB8004
:102B90007B681B6807F10F02104601219847034626
:102BA000002B32D07B689A7AFB7B9A4203D07B68F9
:102BB0009B7A002B29D17B685A687B681B89104659
:102BC00000211A46FEF704FB7B6800221A837B680B
:102BD0005A687B681B8B1344FA7B1A707B681B8BCB
:102BE00001339AB27B681A837B685B69002B08D03B
:102BF0007B6803F11C027B685B6910461946FFF78E
:102C0000ABFE7B6801229A76B1E0B0E07B685A683F
:102C10007B681B8B1344FA7B1A707B681B8B013318
:102C20009AB27B681A837B681B8B1A467B681B8968
:102C3000013B9A4203DB7868FFF784FF51E07B6831
:102C40009B7C002B2ED07B681A8B7B689B7C9A42E6
:102C500028D37B685A687B681B8B19467B689B7CF2
:102C6000CB1AD1187B6803F10B027B689B7C08466A
:102C700011461A46FEF7A0FD0346002B12D17B68D1
:102C80001B8B1A467B681B89013B9A4206DA7B68DC
:102C90005A687B681B8B134400221A707B680222DF
:102CA0009A761EE07B685B69002B06D07B681C333C
:102CB0001846FFF779FE00E000BF7B681B6807F14C
:102CC0000F021046012198470346002B09D07B686C
:102CD0001A8B7B681B899A4203D27B689B7E012BEF
:102CE00094D07B685B69002B22D07B681C3318462C
:102CF000FFF79AFE0346012B1AD17B681B8B1A46FD
:102D00007B681B89013B9A4206DA7B685A687B68BC
:102D10001B8B134400221A707B689B7C002B03D111
:102D20007B6802229A7622E07868FFF70BFF1EE0AC
:102D30001DE07B685A687B681B8B013B13441B7842
:102D4000002B0FD07B681B8B1A467B681B89013BCD
:102D50009A4207DA7B685A687B681B8B134400220F
:102D60001A7004E003E07868FFF7ECFE00BF10374C
:102D7000BD4680BD80B483B000AF78607B689B7E29
:102D8000022B01D1012300E0002318460C37BD4679
:102D90005DF8047B704700BF80B485B000AFF86079
:102DA000B9607A60FB689B7E022B00D007E0FB686D
:102DB0005A68BB681A60FB681A8B7B681A801437E4
:102DC000BD465DF8047B704780B584B000AFF86005
:102DD000B9601346FB80FB681B6B002B00D105E03C
:102DE000FB681B6BFA88B868114698471037BD46D8
:102DF00080BD00BF80B582B000AF786039607B686D
:102E0000002B0AD07B681B683A68D2B21A707B68C4
:102E10001B685A1C7B681A6004E03B68DBB21846EA
:102E200015F058FE0837BD4680BD00BF2DE9F041C2
:102E300084B000AFF860B9607A603B60002420265F
:102E40007B68002B19DD0025D7F8088002E00135EA
:102E500008F1010898F80030002BF8D17B689D42FA
:102E600002DB00237B6002E07B685B1B7B603B68CE
:102E700003F00203002B00D030263B6803F001036F
:102E8000002B0BD107E0F8683146FFF7B3FF0134A0
:102E90007B68013B7B607B68002BF4DC0AE0BB684D
:102EA0001B785BB2F8681946FFF7A4FF0134BB68D2
:102EB0000133BB60BB681B78002BF0D107E0F868DA
:102EC0003146FFF797FF01347B68013B7B607B68ED
:102ED000002BF4DC234618461037BD46BDE8F081D0
:102EE0002DE9F0438DB000AFF860B9607A603B60C7
:102EF0004FF000094FF00008BD68002387F82F301D
:102F0000BB68002B33D13B68002B0CD097F82F30D7
:102F10001A46013287F82F205BB207F130021344C2
:102F20002D2203F8202C97F82F301A46013287F80B
:102F30002F205BB207F130021344302203F8202C1B
:102F400097F82F301A46013287F82F205BB207F12D
:102F500030021344002203F8202C07F11003F86814
:102F600019463A6D7B6DFFF761FF03464AE03B6807
:102F7000002B0AD07B680A2B07D1BB68002B04DC2E
:102F80004FF00109BB685B421D4607F110041D3478
:102F90000023237014E07B68B5FBF3F203FB02F31C
:102FA000EB1A1E46092E02DDBB6D3A3B1E44013C66
:102FB000F3B23033DBB2DBB223707B68B5FBF3F5E1
:102FC000002DE8D1B9F1000F14D03B6D002B0ED0CD
:102FD0007B6D03F00203002B09D0F8682D21FFF769
:102FE00009FF08F101083B6D013B3B6502E0013C34
:102FF0002D232370F86821463A6D7B6DFFF716FF8D
:103000000346434418463437BD46BDE8F08300BF4D
:1030100090B58FB004AFF860C7E900230023BB610F
:1030200007F11003D7E900011A46FEF721F9C7E9B5
:1030300008013B6A3B627B6A23F000437B6200230A
:10304000FB6110E0D7E908014FF000024FF00003E8
:10305000C4F22403FDF758FA02460B46C7E90823D9
:10306000FB690133FB61FA69FB6B9A42EADBD7E942
:10307000042310461946FDF7E1FC0446D7E9000198
:103080004FF000024FF00003FDF7B0FC0346002BA9
:103090001AD0D7E90801FDF7D1FC03461846FDF721
:1030A000CDF9D7E90423FDF77DF802460B4610461B
:1030B00019464FF000024FF00003FDF78DFC034668
:1030C000002B01D1012300E00023BA6B00923A6C7F
:1030D000019261220292F86821460A22FFF700FF5E
:1030E0000346BA691344BB61F8682E21FFF782FEDC
:1030F000BB690133BB61D7E90801FDF79FFC0346BB
:10310000002B10D1FB6B00930223019361230293E8
:10311000F86800210A220023FFF7E2FE0346BA699D
:103120001344BB6114E0D7E90801FDF787FC0346AF
:10313000012200920022019261220292F86819464F
:103140000A220023FFF7CCFE0346BA691344BB6191
:10315000BB6918462C37BD4690BD00BF2DE9F04134
:103160008AB004AFF860B9607A60002419E1BB68E6
:103170001B785BB2252B40F00981BB680133BB6033
:10318000002635464FF00008BB681B78002B00D1A5
:103190000CE1BB681B785BB2252B00D1F6E0BB6865
:1031A0001B785BB22D2B04D1BB680133BB600126B9
:1031B00005E004E0BB680133BB6046F00206BB6873
:1031C0001B785BB2302BF5D00CE02B469B002B44D8
:1031D0005B001D46BB681B785BB2303B1D44BB687F
:1031E0000133BB60BB681B785BB22F2B04DDBB686F
:1031F0001B785BB2392BE8DDBB681B785BB22E2BEA
:103200001BD1BB680133BB600CE043469B004344C9
:103210005B009846BB681B785BB2303B9844BB6848
:103220000133BB60BB681B785BB22F2B07DDBB682B
:103230001B785BB2392BE8DD01E04FF00608BB6874
:103240001B785BB2732B16D17B681A1D7A601B68E2
:103250009846B8F1000F01D0434603E04DF26443B5
:10326000C0F60303F86819462A463346FFF7DEFD29
:1032700003461C4492E0BB681B785BB2642B13D1FD
:103280007B681A1D7A601B687B617B69DB0FDBB290
:103290000095019661220292F86879690A22FFF787
:1032A0001FFE03461C4479E0BB681B785BB2782B99
:1032B00010D17B681A1D7A601B6800950196612207
:1032C0000292F868194610220023FFF709FE034610
:1032D0001C4463E0BB681B785BB2582B10D17B6841
:1032E0001A1D7A601B680095019641220292F868C7
:1032F000194610220023FFF7F3FD03461C444DE05E
:10330000BB681B785BB2752B10D17B681A1D7A6085
:103310001B680095019661220292F86819460A22FC
:103320000023FFF7DDFD03461C4437E0BB681B7834
:103330005BB2632B12D17B681A1D7A601B68DBB20B
:103340003B7400237B7407F11003F86819462A4682
:103350003346FFF76BFD03461C441FE0BB681B7838
:103360005BB2662B1AD17B68073323F0070303F1A6
:1033700008027A60D3E900230095CDF80480029614
:10338000F868FFF745FE03461C4407E0BB681B785E
:103390005BB2F8681946FFF72DFD0134BB680133B5
:1033A000BB60BB681B78002B7FF4E1AEFB68002B91
:1033B00003D0FB681B6800221A7023461846183792
:1033C000BD46BDE8F08100BF0FB480B582B000AF4C
:1033D00007F114037B60002039697A68FFF7BEFEAD
:1033E000034618460837BD46BDE8804004B0704724
:1033F0000EB480B585B000AF786007F12003FB60A4
:103400003B1D1846F969FA68FFF7A8FE03461846FF
:103410001437BD46BDE8804003B0704780B582B028
:1034200000AF786040F2D432C2F2000279680B46F5
:103430009B000B449B0013441B68002B19D040F2E7
:10344000D432C2F2000279680B469B000B449B0009
:1034500013441B68184602F0B1FE40F2D432C2F2A7
:10346000000279680B469B000B449B00134400222A
:103470001A6040F2D432C2F2000279680B469B0017
:103480000B449B001344103300229A700837BD464A
:1034900080BD00BF80B582B000AF0023FB7176E035
:1034A000F97940F2D432C2F200020B469B000B4481
:1034B0009B00134410339B78BB71BB79002B63D006
:1034C000FA7940F2D431C2F2000113469B00134452
:1034D0009B000B441033DB780133D8B240F2D43177
:1034E000C2F2000113469B0013449B000B441033AF
:1034F0000246DA70F97940F2D432C2F200020B4689
:103500009B000B449B0013441033DB78EF2B1BD83C
:10351000F97940F2D432C2F200020B469B000B4410
:103520009B00134410339B78012B12D1F97940F2A0
:10353000D432C2F200020B469B000B449B001344A2
:103540001033DB78012B04D9FB791846FFF766FFAF
:103550001AE0F97940F2D432C2F200020B469B0025
:103560000B449B00134410339B78032B0CD1F97947
:1035700040F2D432C2F200020B469B000B449B0087
:103580001344103302229A70FB790133FB71FB79EB
:10359000092B85D90837BD4680BD00BF80B586B0F0
:1035A00000AF78600B46FB700A23FB750A23BB75DE
:1035B0000A237B7500233B750023FB740023BB7437
:1035C0000A237B7400233B7400233B75A1E0397D03
:1035D00040F2D432C2F200020B469B000B449B0027
:1035E000134410339B78FB7397F915300A2B05D1E0
:1035F000FB7B002B02D13B7D7B7587E0FB7B002BA7
:1036000000F084807B68002B11D07B681868397DBE
:1036100040F2D432C2F200020B469B000B449B00E6
:10362000134404331B68984201D13B7DD0E0FB7BFF
:10363000012B4AD1397D40F2D432C2F200020B464E
:103640009B000B449B0013441B68002B1ED0397D4C
:1036500040F2D432C2F200020B469B000B449B00A6
:1036600013441033DB783A7C9A424FD83B7D7B740D
:10367000397D40F2D432C2F200020B469B000B446B
:103680009B0013441033DB783B743FE0397D40F2FC
:10369000D432C2F200020B469B000B449B00134441
:1036A0001033DB78FA7C9A4230D83B7DFB75397D4C
:1036B00040F2D432C2F200020B469B000B449B0046
:1036C00013441033DB78FB7420E0FB7B012B1DD906
:1036D000397D40F2D432C2F200020B469B000B440B
:1036E0009B0013441033DB78BA7C9A420ED83B7DA2
:1036F000BB75397D40F2D432C2F200020B469B000A
:103700000B449B0013441033DB78BB743B7D0133C7
:103710003B753B7D092B7FF65AAFFB7803F0020324
:10372000002B08D197F915300A2B06D1FB7803F04E
:103730000103002B01D1FF234AE097F91530092B33
:1037400002DC7B7D3B751FE097F91630092B07DC07
:10375000BB7D3B753A7D13469B0013449B000FE0F5
:1037600097F91730092B02DCFB7D3B7508E097F9D0
:103770001130092B02DC7B7C3B7501E0FF2327E045
:103780003B7D1846FFF74AFE3A7D13469B001344E3
:103790009B007B68002B0DD0397D7B68186840F258
:1037A000D432C2F200020B469B000B449B00134430
:1037B00004331860397D40F2D432C2F200020B4665
:1037C0009B000B449B00134410330022DA703B7DB6
:1037D0005BB218461837BD4680BD00BF80B586B0C5
:1037E00000AFF860B9607A603B60BB685B687B6182
:1037F0007B69184639680622FDF796FC7B6906331B
:10380000184679680622FDF78FFC7B69002242F09A
:1038100008021A7300225A73FB689B69F868B9683A
:103820009847034618461837BD4680BD80B586B018
:1038300000AFF860B9607A60FB70BB68002B12D0F3
:10384000BB681B68002B0ED0BB681B681846F96864
:1038500001F018F90346002B05D1BB681B6803F083
:10386000F003E02B01D1F2237DE0FB78B868194624
:10387000FFF794FE0346FB7597F91730002B01DA2A
:10388000FB7D70E097F9171040F2D432C2F20002CB
:103890000B469B000B449B001344103302229A708A
:1038A00097F9171040F2D432C2F200020B469B0087
:1038B0000B449B0013440833FA681A6097F91720E9
:1038C00013469B0013449B0003F1080240F2D433DB
:1038D000C2F20003134404337A68116819609288B5
:1038E0009A8097F9171040F2D432C2F200020B46C8
:1038F0009B000B449B00134410330022DA7097F9AD
:10390000171040F2D432C2F200020B469B000B4467
:103910009B0013441B68002B24D097F9171040F22A
:10392000D432C2F200020B469B000B449B001344AE
:103930001B683B6197F9171040F2D432C2F20002C3
:103940000B469B000B449B00134400221A60FB684B
:103950002733F86839691A467B68FFF73FFF3869F3
:1039600002F02CFC00235BB218461837BD4680BD20
:1039700080B58AB000AFF860B9607A60FB68002B50
:1039800000D1B2E07B685B89292B03D8786802F00C
:1039900015FCAAE07B685B683B623B6A0E33FB6107
:1039A000FB691B889BB2B3F5807F0CD1FB691B7947
:1039B000062B08D1FB695B79042B04D1FB695B887A
:1039C0009BB2082B03D0786802F0F8FB8DE0FB690E
:1039D0000E3307F11802104619460422FDF7A4FB26
:1039E000FB69183307F11402104619460422FDF74B
:1039F0009BFBFB680433002B03D0FB685B68002B48
:103A000003D1002387F8273009E07A69FB685B68F7
:103A10009A4214BF00230123DBB287F82730FB69E9
:103A200003F1080297F82730002B01D0012300E0B2
:103A3000022307F11801F868FFF7F8FEFB69DB883D
:103A40009BB2B3F5807F03D0B3F5007F49D049E046
:103A500097F82730002B40D0022001F0C9FC034624
:103A60001A46FB69DA80FB6903F11802FB690E3321
:103A7000104619460422FDF757FBFB6903F10E02BD
:103A8000FB680433104619460422FDF74DFBFB6921
:103A900003F11202FB690833104619460622FDF7AE
:103AA00043FB3A6AFB690833104619460622FDF7C4
:103AB0003BFBFB6908331846B9680622FDF734FB67
:103AC0003B6A06331846B9680622FDF72DFBFB68F2
:103AD0009B69F8687968984702E0FB680433002B1B
:103AE00000E000BF786802F069FB2837BD4680BD62
:103AF00090B585B000AFF860B9601346FB71FA79F4
:103B000013469B0013449B00F97940F2D432C2F271
:103B100000020B469B000B449B00134410339B7820
:103B2000022B2CD1F97940F2D432C2F200020B46BA
:103B30009B000B449B0013441033DB78E32B1ED90E
:103B4000FA7913469B0013449B0040F2D432C2F230
:103B5000000213440433F868194600F0B1FA034632
:103B6000002B0CD1F97940F2D432C2F200020B469C
:103B70009B000B449B001344103303229A70FB6894
:103B800003F12704FA7913469B0013449B0003F1C9
:103B9000080240F2D433C2F2000313440433F8683D
:103BA000B9682246FFF71AFE034618461437BD4689
:103BB00090BD00BF80B588B000AFF860B9607A6092
:103BC0007B68BB61B8680E2102F088FA0346002BBF
:103BD00001D0FE23C6E07B681B681846F96800F038
:103BE00051FF0346002B05D04EF21843C0F60303E5
:103BF000FB61AEE07B681B6803F0F003E02B16D19D
:103C000001233B7400237B745E23BB747B68013308
:103C10001B7803F07F03DBB2FB747B689B783B75FA
:103C20007B68DB787B7507F11003FB6191E07B68B3
:103C30001A68FB685B685A40FB689B681340002B5E
:103C400014D07B681B689AB24FF6A9639A420DD0D4
:103C5000FB680C33002B07D0FB68DB68002B03D01C
:103C6000FB680C33BB6101E0FC237BE040F29C432A
:103C7000C2F200031B78194640F2D432C2F20002AD
:103C80000B469B000B449B00134410339B78012B85
:103C900020D9BB69186840F29C43C2F200031B782C
:103CA000194640F2D432C2F200020B469B000B448C
:103CB0009B00134404331B6898420BD140F29C4391
:103CC000C2F200031B78F868B9681A46FFF710FFC4
:103CD000034647E00023FB7530E097F9171040F2E8
:103CE000D432C2F200020B469B000B449B001344EB
:103CF00010339B78012B1ED9BB69186897F91710F0
:103D000040F2D432C2F200020B469B000B449B00EF
:103D1000134404331B6898420DD1FA7D40F29C4352
:103D2000C2F200031A70FB7DF868B9681A46FFF703
:103D3000DFFE034616E0FB7D0133FB7597F9173074
:103D4000092BCADDF868B969BA6800F011F80346B2
:103D500008E0FB682733F868B9681A46FB69FFF783
:103D60003DFD03465BB218462037BD4680BD00BF0F
:103D700080B58AB000AFF860B9607A60FB6827331D
:103D8000BB61FF2387F82730BB681B681846F968BA
:103D900000F078FE0346002B0CD1BB681B6803F0D3
:103DA000F003E02B06D0BB68002B03D0BB681B6878
:103DB000002B01D1F22304E1B8680121FFF7EEFBEB
:103DC0000346FB7597F91730002B01DAFB7DF8E00D
:103DD00097F9171040F2D432C2F200020B469B0052
:103DE0000B449B00134410339B78002B0DD197F9A3
:103DF000171040F2D432C2F200020B469B000B4473
:103E00009B001344103301229A7097F9171040F267
:103E1000D432C2F200020B469B000B449B001344B9
:103E200010339B78012B05D097F9172013469B0080
:103E300013449B0097F9171040F2D432C2F20002EB
:103E40000B469B000B449B00134410339B78012BC3
:103E500002D07B68002B0CD1F868B96800F030F90B
:103E6000034687F827307B68002B02D197F827306C
:103E7000A7E097F9171040F2D432C2F200020B46C5
:103E80009B000B449B00134410339B78012B1CD9DF
:103E9000FA7D40F29C43C2F200031A7097F9172092
:103EA00013469B0013449B0003F1080240F2D433F5
:103EB000C2F2000313440433F8687968BA69FFF763
:103EC0008DFC034687F8273079E097F9171040F208
:103ED000D432C2F200020B469B000B449B001344F9
:103EE00010339B78012B6AD10023FB617B683B6216
:103EF0000EE03B6A5A893B6A1B899A423B6A1B7BEC
:103F0000012B02D00123FB6105E03B6A1B683B6289
:103F10003B6A002BEDD1FB69002B17D03B6A1B8954
:103F200003201946002201F01FFF38623B6A002B74
:103F300011D0386A796802F005FA0346002B0AD0DE
:103F4000386A02F03BF900233B6204E07B683B6285
:103F5000386A02F0A7F93B6A002B2DD097F91710A9
:103F600040F2D432C2F200020B469B000B449B008D
:103F700013441B68002B0ED097F9171040F2D4326F
:103F8000C2F200020B469B000B449B0013441B68CB
:103F9000184602F013F997F9171040F2D432C2F222
:103FA00000020B469B000B449B0013443A6A1A60C4
:103FB000002387F8273002E0FF2387F8273097F89F
:103FC00027305BB218462837BD4680BD80B588B023
:103FD00000AFF860B9607A603B600023FB77032094
:103FE0002A21002201F0C0FEB861BB69002B01D17B
:103FF000FF2360E0BB695B687B617B690E333B61DB
:10400000BB8E184601F0F4F903461A463B69DA8084
:104010003B690833184639680622FDF785F83B6985
:1040200012331846F96A0622FDF77EF87B691846B6
:1040300079680622FDF778F87B6906331846B96877
:104040000622FDF771F83B690E331846B96A04225F
:10405000FDF76AF83B6918331846396B0422FDF7FF
:1040600063F83B6900221A70002242F001025A7084
:104070003B69002242F008029A700022DA703B6924
:1040800006221A713B6904225A717B69002242F0B0
:1040900008021A73002242F006025A73FB689B69F9
:1040A000F868B96998470346FB77B86902F086F863
:1040B0000023BB61FB7F5BB218462037BD4680BD45
:1040C00090B587B004AF786039607B6803F1270250
:1040D0007B6803F127047B68043300934EF220438E
:1040E000C0F6030301933B680293012303937868AE
:1040F00011464EF21842C0F603022346FFF766FF50
:10410000034618460C37BD4690BD00BF80B586B04B
:1041100000AF786039600E23FB827B685B890E2BD1
:1041200000D868E07B685B683B613B691A7B5B7B1E
:104130001B021343FB813B691B7803F00103002B37
:1041400026D03B691B78012B0FD13B695B78002B94
:104150001ED13B699B785E2B1AD17B685B7B43F059
:104160001003DAB27B685A7312E03B6918464EF2CC
:104170001841C0F603010622FCF7A4FF0346002BFA
:1041800006D17B685B7B43F00803DAB27B685A7325
:10419000FB89082B03D0B3F5C16F1AD02BE03B6825
:1041A00093F82D3003F02003002B00D123E0FB8A8D
:1041B0005B429BB29BB21BB27868194601F08EFF3E
:1041C0000346002B00D016E07868396800F07EFACC
:1041D0000FE03B6893F82D3003F02003002B00D153
:1041E00009E03B682733386819467A68FFF7C0FB57
:1041F00000BF002303E0786801F0E0FF00235BB21A
:1042000018461837BD4680BD80B58CB004AF7860C5
:1042100039607B685B68FB61FB691B7803F00F0307
:104220009BB29B009BB2FB82FB8A5B429BB29BB220
:104230001BB27868194601F051FF0346002B40F08D
:10424000C6807B681B89032B40F2C1807B685B685A
:104250001B787B757B7D002B00F0B480082B40F031
:10426000B2800123BB6144F20013C2F200031B6859
:1042700003F0F003E02B01D10023BB6144F20013F3
:10428000C2F200031B681846396800F0FBFB0346C6
:10429000002B01D00023BB61BB69002B03D17868E0
:1042A00001F08CFF9BE07B681B89072B00D88EE018
:1042B000786800F07BF90346002B03D0786801F0A2
:1042C0007DFF8CE07868222101F008FF0346002B77
:1042D00033D0B7F916307868194601F0FFFE03466F
:1042E000002B00D077E07B681B8902201946002252
:1042F00001F03AFD38613B69002B00D16BE0386971
:10430000796802F01FF80346002B00D063E03B6998
:104310005B68FB61FB8A5B429BB29BB21BB2386954
:10432000194601F0DBFE0346002B00D053E078680D
:1043300001F044FF3B697B6008E078686FF0210181
:1043400001F0CCFE0346002B00D044E07B685B68A4
:10435000FB6044F20013C2F200031A68FB69DA60E2
:1043600044F2F803C2F200031A68FB691A61FB68A1
:1043700000221A70FB6800229A700022DA70FB6932
:10438000FF221A72FB6900229A720022DA72B7F9D0
:1043900016307868194601F0A1FE0346002B10D1B3
:1043A00000230093012301933B680293786844F251
:1043B0000011C2F200010022FF2300F0ADFA034613
:1043C000FB7200E000BF786801F0F8FE07E0786853
:1043D00001F0F4FE03E0786801F0F0FE00BF203742
:1043E000BD4680BD80B582B000AF78600B46FB70E3
:1043F000FB78786803211A4600F014F80837BD46A8
:1044000080BD00BF80B582B000AF78600B46FB7006
:10441000FB7878680B211A4600F004F80837BD468F
:1044200080BD00BF80B588B002AF786013460A46F1
:10443000FA70BB7001202421002201F095FC786104
:104440007B69002B41D07B685B683B617B695B6863
:10445000FB60FB68FA781A70FB68BA785A70FB68E0
:1044600000221A7100225A71FB6800229A71002200
:10447000DA717B695B6803F108027B685B68104650
:1044800019461C22FCF750FEFB6800229A7000229D
:10449000DA707B695B89F868194600F075F80346A5
:1044A0001A46FB685A803B69DB68BB6007F108036A
:1044B0000022009201220192786900211A46FF230E
:1044C00000F0BCFA786901F079FE1837BD4680BD6E
:1044D00080B489B000AF786039607B68FB610023ED
:1044E000FB8100237B61FB6903F001033B613B69B6
:1044F000002B0DD03B68002B0ADD07F10E030133C2
:10450000FA69511CF96112781A703B68013B3B60F3
:10451000FB69BB6109E0BB699A1CBA611B887A69B7
:1045200013447B613B68023B3B603B68012BF2DC40
:104530003B68002B04DD07F10E03BA6912781A708C
:10454000FB897A6913447B617B691A0C7B699BB296
:1045500013447B617B691A0C7B699BB213447B61BA
:104560003B69002B08D07B691B029AB27B6903F47C
:104570007F431B0A13437B617B699BB21846243738
:10458000BD465DF8047B704780B582B000AF7860AF
:104590000B467B807B8878681946FFF799FF0346B6
:1045A000DB439BB218460837BD4680BD80B586B058
:1045B00000AF786000237B610023FB737B683B6165
:1045C00028E03B695A683B695B8910461946FFF74A
:1045D0007FFF03467A6913447B617B691A0C7B6910
:1045E0009BB213447B613B695B8903F001039BB27F
:1045F000002B0CD0FB7BC3F10103FB737B691B0217
:104600009AB27B6903F47F431B0A13437B613B69C6
:104610001B683B613B69002BD3D1FB7B002B08D08F
:104620007B691B029AB27B6903F47F431B0A134325
:104630007B617B699BB2DB439BB218461837BD4652
:1046400080BD00BF80B485B000AF786046F61C1313
:10465000C2F200031B68FB6015E0FB6893F82D3085
:1046600003F00103002B0BD07B681A68FB685B68C2
:104670005A40FB689B681340002B01D1FB681EE089
:10468000FB681B68FB60FB68002BE6D146F6201335
:10469000C2F200031B68002B0AD046F62013C2F2B8
:1046A00000031B6893F82D3003F00103002B01D1A8
:1046B000002304E046F62013C2F200031B681846EC
:1046C0001437BD465DF8047B704700BF80B586B0E7
:1046D00000AF786039607B685B687B617B691B78C1
:1046E0001B09DBB2042B04D0786801F067FD0023BE
:1046F0000CE17B691B7803F00F037B817B899B00B6
:104700007B817B695B889BB2184600F087FE03467D
:104710003B817B685B897A899A4204D87B681B89D4
:104720003A899A4204D9786801F048FD0023EDE007
:104730003B897868194601F06DFC7B691A6944F27F
:104740000013C2F200031A607B69DA6844F2F803CE
:10475000C2F200031A600123FB603B683B613B69C6
:1047600093F82D3003F00103002B1CD03B69043378
:10477000002B18D03B695B68002B14D044F2001367
:10478000C2F200031A683B695B689A4224D044F283
:104790000013C2F200031B681846396900F072F971
:1047A0000346002B18D1FB68002B08D00023FB60C8
:1047B00046F61C13C2F200031B683B6102E03B6932
:1047C0001B683B613A693B689A4202D13B691B68AE
:1047D0003B613B69002BC2D144F2F803C2F20003F3
:1047E0001B681846396800F04DF90346002B08D1C4
:1047F00044F2F803C2F200031B6803F0F003E02B5D
:1048000004D1786801F0DAFC00237FE03B69002BDB
:1048100004D1786801F0D2FC002377E07B69DB8863
:104820009BB21A464FF63F731340002B0BD07868AB
:1048300000F086FB78607B68002B01D1002365E0E7
:104840007B685B687B6144F2FC03C2F200033A6858
:104850001A6044F20413C2F200037A691A6078689D
:10486000396801F059FE0346002B36D17B695B7A2B
:10487000062B09D0112B02D0012B0AD00EE078684C
:10488000396806F051F828E07868396803F050F884
:1048900023E078683968FFF7B7FC1EE044F20013A4
:1048A000C2F200031B681846396800F0EBF80346B3
:1048B000002B0FD144F20013C2F200031B6803F077
:1048C000F003E02B06D07B687A695A607868022191
:1048D000FFF788FD786801F071FC44F2FC03C2F236
:1048E000000300221A6044F20413C2F20003002203
:1048F0001A6044F2F803C2F2000300221A6044F284
:104900000013C2F2000300221A6000235BB21846B3
:104910001837BD4680BD00BF80B588B000AFF860D5
:10492000B9607A60FB707B68002B61D01423FB8335
:10493000F868142101F0D2FB0346002B01D0FE23BE
:1049400077E0FB685B68BB61BB69FA781A72BB6988
:1049500097F82C205A727B681A68BB691A61FB8B26
:104960009B089BB2DBB243F04003DAB2BB691A701A
:10497000BB6997F828205A70FB681B89184600F01D
:1049800037FD03461A46BB695A80BB6900229A71FB
:104990000022DA7140F29E43C2F200031B881846DF
:1049A00000F026FD03461A46BB699A8040F29E43FA
:1049B000C2F200031B8801339AB240F29E43C2F256
:1049C00000031A80BB68002B03D0BB681B68002B58
:1049D00004D13B6B5A68BB69DA6003E0BB681A68B4
:1049E000BB69DA60BB6900229A720022DA7208E0C1
:1049F000FB685B68BB61BB691B697B6107F11403E2
:104A00007B603B6B9B8C002B0CD0FB681A893B6B4B
:104A10009B8C9A4206D9F868396B7A6800F0EAFBF9
:104A2000034606E03B6B5B69386BF9687A68984728
:104A300003465BB218462037BD4680BD80B58AB0BC
:104A400004AFF860B9607A60FB707868FFF7FAFD30
:104A500078617B69002B01D1FC230EE0FB7897F88D
:104A60002020009297F8242001927A690292F86837
:104A7000B9687A68FFF750FF03465BB218461837EB
:104A8000BD4680BD80B485B000AF786039607B687A
:104A9000FB607B68B3F1FF3F02D07B68002B01D144
:104AA000012325E03B6893F82D3003F00203002B2F
:104AB00001D100231CE03B685A687B689A4201D10F
:104AC000002315E0FA683B685B685A403B689B68C6
:104AD0001340002B0BD13B689B68DA437B681A407C
:104AE0003B689B68DB439A4201D1012300E000232D
:104AF00018461437BD465DF8047B704780B588B012
:104B000000AF786039600023FB833B68002B7B6833
:104B10005B685B687B617B699B889BB2002B20D1C3
:104B20007B685B68BB617B691A687B685A60BB699C
:104B30005A687B680833104619461422FCF7F4FAC9
:104B4000B8690121FFF75EFCB86901F093FB0346E9
:104B5000FB74FB7C9AB2FB8B1344FB83B86901F0B6
:104B60002DFB7B685B68BB6114E0BB695B687B61A4
:104B7000BB69FB607B691B68BB61F86801F07AFB6D
:104B80000346FB74FB7C9AB2FB8B1344FB83F868EF
:104B900001F014FBBB69002BE7D17868396800F09D
:104BA000ADF840F2A443C2F200031A88FB8BD31A7B
:104BB0009AB240F2A443C2F200031A80FB8B18465B
:104BC0002037BD4680BD00BF80B588B000AF78609B
:104BD000396000233B610023BB6100237B6100231C
:104BE000FB6040F2A043C2F200031B68FB612CE0B3
:104BF000FB695A697B68DB689A420CD1FB699A6948
:104C00007B681B699A4206D1FB699A897B689B88FD
:104C10009BB29A4210D0FB680133FB60BB69002B4A
:104C200002D1FB69BB6107E0FB69DA7FBB69DB7F0F
:104C30009A4201D8FB69BB61FB691B68002B01D05C
:104C4000FB697B61FB691B68FB61FB69002BCFD1B2
:104C5000BB69002B08D0B8697969FFF74FFFB860CE
:104C60003A69BB6813443B613A693B689A4202DA8D
:104C7000FB68012BAFDC3B6918462037BD4680BD81
:104C800080B584B000AF78603960052000F002FF85
:104C9000F860FB68002B10D178683968FFF794FF43
:104CA00002463B689A4203DB052000F0F3FEF86001
:104CB000FB68002B01D100231CE0F86800212022B2
:104CC000FCF786FAFB680322DA7740F2A043C2F2CF
:104CD00000031A68FB681A6040F2A043C2F20003A6
:104CE000FA681A60FB680833184679681422FCF7E2
:104CF0001BFAFB6818461037BD4680BD80B582B0F0
:104D000000AF7860396040F2A043C2F200031A6835
:104D10007B689A4207D17B681A6840F2A043C2F2CE
:104D200000031A6003E07B681A683B681A6005207C
:104D3000796800F0D5FE0837BD4680BD90B58BB0D0
:104D400000AF7860396000233B620123BB613B68A0
:104D50005B687B617B695B889BB2184600F05EFBF9
:104D600003461A467B691B7803F00F039BB2194672
:104D70008903CB1A9B009BB213447B827B69DB883F
:104D80009BB2184600F04AFB0346C3F30C039BB2E8
:104D9000DB003B823B685B687B627B6A00221A70A7
:104DA00000225A7000229A700022DA707B6A3A8AD6
:104DB0009A803A8A7B8A13449AB27B6ADA807B684B
:104DC0005B68FB614EE0FB695B68FB607B6A9B880C
:104DD0009AB2FB689B889BB29A421FD27B6AFA699F
:104DE0001A603B6A002B15D07B6A9B889AB23B6A9B
:104DF000DB889BB29A42C0F08B807B6ADB889AB2D8
:104E0000FB689B889BB29A4200F282803B6A3A68B8
:104E10001A602AE07B683A685A6026E07B6A9B88C1
:104E20009AB2FB689B889BB29A4200D170E07B6A81
:104E30009B889AB2FB68DB889BB29A4200D267E0FB
:104E40003B6A002B09D03B6ADB889AB2FB689B88DF
:104E50009BB29A4201D00023BB61FB681B68FB61D7
:104E6000FB683B62FB69002BADD1FB69002B17D1BE
:104E70003B6A002B11D03B6ADB887B6A9B883B6ACC
:104E80003A681A603B6ADB889AB27B6A9B889BB25D
:104E90009A4205D00023BB6102E07B683A685A6001
:104EA0007B689B7F03F00103002B2FD0BB69002B95
:104EB0002AD07B685B685B689B889BB2002B02D022
:104EC0000023BB6120E07B6A3B627B6A1B68FB615D
:104ED00012E0FB695B687B623B6ADB889AB27B6AA3
:104EE0009B889BB29A4202D00023BB6107E07B6A99
:104EF0003B627B6A1B68FB61FB69002BE9D1BB69E4
:104F0000002B01D07B6ADB88BB6915E0002313E02E
:104F100040F2A443C2F200031C88386801F0AAF9E9
:104F20000346E31A9AB240F2A443C2F200031A8085
:104F3000386801F043F9002318462C37BD4690BD70
:104F400090B58BB000AF78600023FB617B685B6835
:104F5000BB61BB691B7803F00F039B00142B00D0CF
:104F600016E1BB69DB889BB2184600F057FA03468E
:104F7000C3F30C039BB2DB00FB82BB695B889BB273
:104F8000184600F04BFA03461A46BB691B7803F03B
:104F90000F039BB219468903CB1A9B009BB21344A3
:104FA000BB82786801F066F90346FB7440F2A443C3
:104FB000C2F200031B881A46FB7C13440A2B13DD44
:104FC000FB7CB8691946FFF7FFFD0346002B00F094
:104FD000DF8040F2A443C2F200031B881A46FB7C28
:104FE00013440A2B00F3D48040F2A043C2F2000322
:104FF0001B683B6218E03B6A5A69BB69DB689A42EE
:105000000DD13B6A9A69BB691B699A4207D13B6A19
:105010009A89BB699B889BB29A4200D107E03B6AA0
:10502000FB613B6A1B683B623B6A002BE3D13B6A36
:10503000002B09D1FB7CB8691946FFF721FE3862C5
:105040003B6A002B1CD1A3E0BB69DB889BB21846EE
:1050500000F0E4F90346C3F30C03002B10D13B6AC4
:10506000DB89184600F0DAF90346C3F30C03002B82
:1050700006D03B6A08331846B9691422FCF754F885
:10508000FB7C9AB240F2A443C2F200031B88134493
:105090009AB240F2A443C2F200031A80BB69DB88D3
:1050A0009BB203F02003002B0CD13B6A9B7F43F0A3
:1050B0000103DAB23B6A9A77FA8ABB8A13449AB23E
:1050C0003B6A9A83386A7968FFF738FE0346002BFB
:1050D0005CD03B6A9B8B14339AB23B6A9A833B6ADF
:1050E0005B685B681B687B623B6A5B685B68BB6193
:1050F0003B6A0833B86919461422FCF715F83B6A75
:105100009B8B184600F074F903461A46BB695A8017
:10511000BB6900229A710022DA71BB6900229A727F
:105120000022DA72B8691421FFF72EFA03461A46F4
:10513000BB695A813B6A5B687B600EE07B6A5B6897
:10514000FB60786A6FF0130100F0C8FF7868796A35
:1051500001F0BAF8FB681B687B627B6A002BEDD11B
:10516000386AF969FFF7CAFD40F2A443C2F20003AE
:105170001C88786801F07EF80346E31A9AB240F280
:10518000A443C2F200031A807B6805E0002303E019
:10519000786801F013F8002318462C37BD4690BDFF
:1051A00080B500AF062000F075FC0346184680BDB0
:1051B00080B582B000AF78600620796800F090FC7E
:1051C0000837BD4680BD00BF80B584B000AF7860B1
:1051D0007B68FB60FB685B69002B04D0FB685B6944
:1051E000184600F0EBFFF868FFF7E2FF1037BD4606
:1051F00080BD00BF80B592B002AFF860B9607A6040
:10520000BB689B8C7B8614237B870023FB86FB6813
:105210005B68FB62FB6ABB62BB6ADB889BB21846B9
:1052200000F0FCF803463B873B8FC3F30C03BB87BE
:105230003B8F03F40053FB84FB681B89143BFB8703
:105240007B8E143BDA1D002BB8BF1346DB10BB84EA
:10525000C4E0FA8F7B8E143B9A42CCBF002301231B
:10526000DBB27B84BB8FC3F30C039AB2FB8C13437A
:105270003B877B8C002B03D13B8F43F400533B8750
:105280007B8C002B03D1BB8CDB009BB200E0FB8F3F
:105290003B8402201421002200F066FDF861FB69C6
:1052A000002B01D1FF239EE0FB695B681846F96A79
:1052B0001422FBF739FFFB695B68BB62FB685A6825
:1052C0007B8F1A44FB685A60FB685A897B8FD31A1C
:1052D0009AB2FB685A813B8CBB864AE0FB685A89CC
:1052E000BB8E9A4238BF1346FB86FB8E002B03D140
:1052F000FB681B68FB603CE0FFF752FFB861BB69CD
:10530000002B04D1F86900F059FFFF236BE0BB6963
:10531000FA685168FA8E0091F98E019103201146C6
:10532000022200F01DFE78617B69002B07D1B8696D
:10533000FFF73EFFF86900F041FFFF2353E0F868F4
:1053400000F0B0FFBB69FA685A61BA6945F2C91347
:10535000C0F602031361F869796900F0B5FFBA8EEF
:10536000FB8ED31ABB86BB8E002B02D0FB681B685A
:10537000FB60BB8E002BB1D1FB8E7B873B8F184629
:1053800000F036F803461A46BB6ADA803B8C1433C9
:105390009BB2184600F02CF803461A46BB6A5A80A6
:1053A000BB6A00229A720022DA72B86A1421FFF7EF
:1053B000EBF803461A46BB6A5A81BB685B69B8685A
:1053C000F9697A689847F86900F0F8FEFA8F3B8C23
:1053D000D31AFB87BA8FBB8C1344BB87FB8F002B80
:1053E0007FF437AF00235BB218464037BD4680BD1F
:1053F00080B483B000AF0346FB80FB881B029AB2E7
:10540000FB881B0A9BB29BB213439BB29BB218460C
:105410000C37BD465DF8047B704700BF80B582B095
:1054200000AF0346FB80FB881846FFF7E1FF034609
:1054300018460837BD4680BD80B483B000AF7860A1
:105440007B681A067B6803F47F431B021A437B6860
:1054500003F47F031B0A1A437B681B0E1343184691
:105460000C37BD465DF8047B704700BF80B582B045
:1054700000AF78607868FFF7DFFF0346184608370B
:10548000BD4680BD80B485B000AF786040F2A843CF
:10549000C2F200031A687B681B881344FB607A68B9
:1054A000FB689A422ED0FB681B79002B2AD140F270
:1054B000AC43C2F200031B68FA689A4222D040F261
:1054C000B043C2F200031A68FB689A4205D140F269
:1054D000B043C2F200037A681A60FB681A887B68DE
:1054E0001A8040F2A843C2F200031A68FB681B88C6
:1054F0001A44796840F2A843C2F200031B68CB1A31
:105500009BB2538040F2A843C2F200031A687B6842
:105510005B881344BB60BA687B689A4226D0BB683C
:105520001B79002B22D140F2B043C2F200031A686B
:105530007B689A4205D140F2B043C2F20003BA68D8
:105540001A607B681A88BB681A8040F2A843C2F2CE
:1055500000031A687B681B881A44B96840F2A843A4
:10556000C2F200031B68CB1A9BB253801437BD46AE
:105570005DF8047B704700BF80B483B000AF44F295
:105580000813C2F20003033323F003031A4640F268
:10559000A843C2F200031A6040F2A843C2F200031B
:1055A0001B687B607B684FF420521A807B68002266
:1055B0005A807B6800221A7140F2A843C2F20003AD
:1055C0001B6803F5205240F2AC43C2F200031A609C
:1055D00040F2AC43C2F200031B6801221A7140F290
:1055E000AC43C2F200031B684FF420521A8040F211
:1055F000AC43C2F200031B684FF420525A8040F2C1
:10560000A843C2F200031A6840F2B043C2F200039A
:105610001A600C37BD465DF8047B704780B584B0D6
:1056200000AF78607B68002B00D12EE040F2A843E9
:10563000C2F200031B687A689A4240F2A843C2F2A1
:1056400000031B687A689A4207D340F2AC43C2F267
:1056500000031B687A689A4200D316E07B68083B17
:10566000FB60FB6800221A7140F2B043C2F20003F3
:105670001B68FA689A4205D240F2B043C2F20003B6
:10568000FA681A60F868FFF7FDFE1037BD4680BD66
:1056900080B487B000AF78600B467B807B88033393
:1056A0009BB223F003037B807B880B2B01D80C2358
:1056B0007B807B88B3F5205F01D90023C4E040F2F2
:1056C000A843C2F200031B687A689A4240F2A843DA
:1056D000C2F200031B687A689A4207D340F2AC43D7
:1056E000C2F200031B687A689A4201D37B68ABE080
:1056F0007B68083B7B617A6940F2A843C2F20003F1
:105700001B68D31A7B827B691A887B8AD31A9BB267
:10571000083B3B827A883B8A9A4201D9002393E076
:105720007A883B8A9A4201D17B688DE040F2A84397
:10573000C2F200031A687B691B881344FB60FB6894
:105740001B79002B41D1FB681B887B817A8A7B887F
:1057500013449BB208333B8140F2B043C2F20003D2
:105760001A68FB689A420BD140F2A843C2F20003C8
:105770001A683B891A4440F2B043C2F200031A602F
:1057800040F2A843C2F200031A683B891344FB604D
:10579000FB6800221A71FB687A891A80FB687A8A92
:1057A0005A807B693A891A80FB681B88B3F5205FB1
:1057B0000AD040F2A843C2F200031A68FB681B88B3
:1057C00013443A895A803EE03DE07B8803F114029D
:1057D0003B8A9A4237D87A8A7B8813449BB2083333
:1057E0003B8140F2A843C2F200031A683B8913448C
:1057F000FB6040F2B043C2F200031B68FA689A42B1
:1058000005D240F2B043C2F20003FA681A60FB68A6
:1058100000221A717B691A88FB681A80FB687A8AF1
:105820005A807B693A891A80FB681B88B3F5205F30
:1058300009D040F2A843C2F200031A68FB681B8833
:1058400013443A895A807B6818461C37BD465DF878
:10585000047B704780B489B000AF0346FB80FB88AF
:10586000002B01D10023B9E0FB8803339BB223F066
:105870000303FB80FB880B2B01D80C23FB80FB88E8
:10588000B3F5205F01D90023A8E040F2B043C2F293
:1058900000031B681A4640F2A843C2F200031B68CB
:1058A000D31AFB8392E040F2A843C2F200031A68C5
:1058B000FB8B13447B617B691B79002B7DD17B695A
:1058C0001B881A46FB8BD31AA3F10802FB889A4265
:1058D00073D37B691B881A46FB8BD31AA3F108028A
:1058E000FB8814339A422DD3FA8BFB8813449BB266
:1058F00008337B8240F2A843C2F200031A687B8A15
:105900001344FB60FB6800221A717B691A88FB68EC
:105910001A80FB68FA8B5A807B697A8A1A807B69C5
:1059200001221A71FB681B88B3F5205F0DD040F28D
:10593000A843C2F200031A68FB681B8813447A8AE2
:105940005A8002E07B6901221A7140F2B043C2F230
:1059500000031B687A699A422CD140F2B043C2F22C
:1059600000031B68BB6108E040F2A843C2F20003D9
:105970001A68BB691B881344BB61BB691B79002B88
:1059800007D040F2AC43C2F200031B68BA699A42E6
:10599000EAD140F2B043C2F20003BA691A6040F2A1
:1059A000B043C2F200031A6840F2AC43C2F20003F3
:1059B0001B689A427B69083310E040F2A843C2F2A8
:1059C00000031A68FB8B13441B88FB83FA8BFB884C
:1059D000C3F520539A42FFF666AF002318462437DA
:1059E000BD465DF8047B704780B483B000AF0023F0
:1059F0007B8002E07B8801337B807B88082BF9D990
:105A000040F2D843C2F20003033323F003037B6068
:105A100000237B8035E07A8840F2B443C2F2000371
:105A2000002143F8221000233B801DE07A8840F2D9
:105A3000B443C2F2000353F822207B681A607A88CC
:105A400040F2B443C2F20003796843F822107A8826
:105A50004EF22C43C0F6030333F812307A68134435
:105A60007B603B8801333B807A884EF24043C0F62E
:105A7000030333F812303A889A42D7D37B88013334
:105A80007B807B88082BC6D90C37BD465DF8047B2C
:105A9000704700BF80B485B000AF0346FB71FB794F
:105AA000082B01D9002314E0FA7940F2B443C2F282
:105AB000000353F82230FB60FB68002B08D0FA7912
:105AC000FB68196840F2B443C2F2000343F82210A5
:105AD000FB6818461437BD465DF8047B704700BF6D
